:10000000F9C0000027C1000025C1000023C1000085
:1000100021C100001FC100001DC100001BC1000064
:1000200019C1000017C1000015C1000013C1000074
:1000300011C100000FC100000DC100000BC1000084
:1000400009C10000DFC5000005C1000003C10000B8
:1000500001C10000FFC00000FDC000000C946D0A4B
:10006000F9C000000C9497120C94C712F3C0000062
:10007000F1C00000EFC00000EDC00000EBC00000C8
:10008000F5C50000E7C00000E5C00000E3C00000C7
:100090000C943E130C946E13DDC00000DBC0000016
:1000A000D9C00000D7C0000015C60000D3C00000B2
:1000B000D1C00000CFC00000CDC000003FC600008E
:1000C000C9C00000C7C00000C5C000000C94E51303
:1000D0000C941514BFC000000C948C140C94BC1428
:1000E000B9C0000000002100240027002A002D00D4
:1000F0003000330001010000040107010A01000083
:100100002200250028002B002E00310034000201BF
:100110000000050108010B01050505050705080894
:100120000808020202020A0A080804040404010181
:100130000101010101010303030303030303040796
:1001400007070C0C0C0C0C0C0C0C0202020206062D
:100150000606060606060B0B0B0B0B0B0B0B010220
:1001600010202008081020401020408002010201C9
:100170000804020101020408102040808040201081
:1001800008040201800402018040201008040201DA
:100190000804020101020408102040800102040842
:1001A0001020408000000A0B02090C0D0E08070306
:1001B000040100000000000000000000000000003A
:1001C000000000000000000000000000000000002F
:1001D00012111000000000000000000000000000EC
:1001E00000000000000000000000AC013213D91331
:1001F0008014291511241FBECFEFD1E2DEBFCDBF81
:1002000000E00CBF14E0A0E0B2E0ECEDFCE200E0A6
:100210000BBF02C007900D92A036B107D9F727E0B7
:10022000A0E6B4E001C01D92A639B207E1F710E0E4
:10023000CAEFD0E000E006C021970109802FFE013F
:100240000E944716C53FD10780E00807A9F7EAD208
:100250000C946C16D5CECF93DF931F921F92CDB71F
:10026000DEB789836A838981282F30E0C901880F2E
:10027000991F820F931F805A9B4F2A81222F30E0B3
:10028000B90181D600000F900F90DF91CF910895B2
:10029000CF93DF931F921F92CDB7DEB789836A8316
:1002A0008981282F30E0C901880F991F820F931F81
:1002B000805A9B4F2A81222F30E0B90110D70000CD
:1002C0000F900F90DF91CF910895CF93DF931F92FE
:1002D000CDB7DEB789838981282F30E0C901880F27
:1002E000991F820F931F805A9B4F0E94B5090F9050
:1002F000DF91CF910895EF92FF920F931F93CF93C9
:10030000DF9300D01F92CDB7DEB79A8389837C83B9
:100310006B8389819A81019799F48B819C810196E5
:1003200079F480E694E001E010E07C01112344F0D0
:10033000C701F5D583E0E80EF11C01501109F6CF95
:1003400000000F900F900F900F90DF91CF911F91B1
:100350000F91FF90EF900895CF93DF93CDB7DEB765
:100360006FEF7FEF81E090E0C6DFDF91CF910895DE
:10037000CF93DF93CDB7DEB786E694E0FC0123810F
:100380002F5FFC01238386E694E0FC0183818A30A1
:1003900020F086E694E0FC0113820000DF91CF910B
:1003A0000895CF93DF931F92CDB7DEB78091910769
:1003B000909192078E5F9D4FFC018081853B18F0E4
:1003C00084EB898309C080919107909192078E5F99
:1003D0009D4FFC0180818983698180E059DF2091F4
:1003E0009107309192078091280490912904820FFF
:1003F000931F9093920780939107209191073091DA
:10040000920780910002909101028217930740F4B5
:1004100080912404909125049093920780939107F2
:1004200080919307882F90E086599C4FFC01808132
:1004300089838981853B10F084EB8983698181E020
:1004400027DF9091930780912C04890F8093930765
:100450009091930780911F04891720F480912A04BA
:100460008093930786E694E0FC018381882339F525
:1004700080918D0790918E07A0918F07B091900782
:1004800020912004309121044091220450912304B2
:10049000BC01CD0123D2882381F08091200490916A
:1004A0002104A0912204B091230480938D0790939E
:1004B0008E07A0938F07B093900780E006DF58DF88
:1004C00000000F90DF91CF910895CF93DF93CDB7C8
:1004D000DEB7809126049091270490939207809331
:1004E000910780912B048093930764E080E0B3DE52
:1004F00069E081E0B0DE8091200490912104A09118
:100500002204B091230480938D0790938E07A093CB
:100510008F07B093900781E090E0A0E0B0E0809377
:10052000890790938A07A0938B07B0938C0764E0A8
:1005300080E091DE0000DF91CF910895CF93DF93AB
:10054000CDB7DEB70000DF91CF910895CF93DF9351
:10055000CDB7DEB726E030E040E855E260E070E07D
:1005600080E090E004D00000DF91CF910895CF9318
:10057000DF9300D000D000D01F92CDB7DEB79C83B0
:100580008B834D835E836F8378873A8729871092A8
:100590006B0410926A0489859A859A8389838B817A
:1005A0009C818130910561F1823091051CF4892B89
:1005B00049F086C08230910509F440C0039709F4E0
:1005C0005AC07EC080916A0490916B048170992713
:1005D000892B09F06EC080916A0490916B04816050
:1005E00090936B0480936A0429818D819E81AF81F1
:1005F000B885AC01BD0185E195E00E94C90E60C0DF
:1006000080916A0490916B0482709927892B09F07C
:1006100052C080916A0490916B04826090936B0445
:1006200080936A0429818D819E81AF81B885AC0158
:10063000BD0182EB95E00E94C90E42C080916A0420
:1006400090916B0484709927892BB9F580916A0485
:1006500090916B04846090936B0480936A04298169
:100660008D819E81AF81B885AC01BD018FE496E09C
:100670000E94C90E25C080916A0490916B04887015
:100680009927892BE1F480916A0490916B0488602A
:1006900090936B0480936A0429818D819E81AF8140
:1006A000B885AC01BD018CEE96E00E94C90E000039
:1006B00007C0000005C0000003C0000001C000002A
:1006C0002A960FB6F894DEBF0FBECDBFDF91CF9153
:1006D0000895CF93DF93CDB7DEB70000DF91CF91C0
:1006E0000895EF92FF920F931F93CF93DF9300D063
:1006F0001F921F92CDB7DEB7198260D7DC01CB0104
:100700008093700490937104A0937204B093730467
:1007100020917004309171044091720450917304DF
:1007200080916C0490916D04A0916E04B0916F045F
:1007300079018A01E81AF90A0A0B1B0BD801C701D3
:1007400080319742A105B10508F43CC08091700446
:1007500090917104A0917204B091730480936C0421
:1007600090936D04A0936E04B0936F043AD026D793
:10077000DC01CB018A839B83AC83BD8380916C04B5
:1007800090916D04A0916E04B0916F042A813B8119
:100790004C815D8179018A01E81AF90A0A0B1B0B69
:1007A000D801C70180319742A105B10538F081E039
:1007B00090E0909375048093740404C010927504C3
:1007C0001092740481E0898389810F900F900F90BB
:1007D0000F900F90DF91CF911F910F91FF90EF90AD
:1007E0000895CF93DF93CDB7DEB78091760491E083
:1007F000980F90937604882361F081E090E09093C5
:1008000075048093740480917604815080937604FB
:1008100006C0C7DD80917604815080937604DF9115
:10082000CF910895CF93DF9300D000D01F921F92F5
:10083000CDB7DEB78AE097EDA3E2BCE389839A8364
:10084000AB83BC831D821E821F821886109295077F
:100850001092940711D77ADE80912D0490912E0486
:10086000FC011182108231DEF89433DF80912D0477
:1008700090912E04FC018081918121E0892B09F067
:1008800020E0822F80939407789417C080912D04E4
:1008900090912E04FC018081918121E0892B09F443
:1008A00020E0822F809395079091950781E099230E
:1008B00009F080E08093940714DF809194078823E7
:1008C00029F73CDEF89480E090E028960FB6F89483
:1008D000DEBF0FBECDBFDF91CF91089503D008F4E6
:1008E00081E00895990F0008550FAA0BE0E8FEEF8C
:1008F00016161706E807F907C0F012161306E407E4
:10090000F50798F0621B730B840B950B39F40A26DC
:1009100061F0232B242B252B21F408950A2609F4BA
:10092000A140A6958FEF811D811D0895CF93DF9380
:1009300000D000D0CDB7DEB79A8389837C836B83E8
:100940005E834D8389819A81895F9A4FFC01808102
:10095000881F8827881F882331F08B819C81FC01A8
:10096000118210826CC029813A81C901880F991FB8
:10097000820F931F880F991F880F991F9C018981EF
:100980009A81895F9A4FFC018081082E000C990B97
:10099000280F391F80910B05882F90E02817390701
:1009A0003CF529813A81C901880F991F820F931F55
:1009B000880F991F880F991F9C0189819A81895FEF
:1009C0009A4FFC018081082E000C990B280F391FCB
:1009D000C901880F991F820F931F89589B4FFC01F3
:1009E000808186FB882780F9813011F481E001C085
:1009F00080E0882321F129813A81C901880F991F5C
:100A0000820F931F880F991F880F991F9C0189815E
:100A10009A81895F9A4FFC018081082E000C990B06
:100A2000280F391FC901880F991F820F931F8958FA
:100A30009B4FFC0180818F7360E00E94BB0D898118
:100A40009A819C01295F3A4FF90120812F5F895FCC
:100A50009A4FFC01208329813A81C901880F991F8F
:100A6000820F931F880F991F880F991F9C018981FE
:100A70009A81895F9A4FFC018081082E000C990BA6
:100A8000280F391F80910B05882F90E02817390710
:100A900054F489819A81895F9A4FFC0180818C305E
:100AA00014F481E001C080E0882309F478C08B81D0
:100AB0009C81FC014081518129813A81C901880FC3
:100AC000991F820F931F880F991F880F991F9C01F0
:100AD00089819A81895F9A4FFC018081082E000CE0
:100AE000990B280F391FC901880F991F820F931F77
:100AF00088589B4FFC01808191819A01280F391FF2
:100B00008D819E81FC013183208329813A81C90135
:100B1000880F991F820F931F880F991F880F991FA5
:100B20009C0189819A81895F9A4FFC018081082EFE
:100B3000000C990B280F391FC901880F991F820FCC
:100B4000931F89589B4FFC01808186FB882780F981
:100B5000882309F44DC029813A81C901880F991F62
:100B6000820F931F880F991F880F991F9C018981FD
:100B70009A81895F9A4FFC018081082E000C990BA5
:100B8000280F391FC901880F991F820F931F895899
:100B90009B4FFC0180818F7361E0EDD729C08B8171
:100BA0009C81FC0180819181049621E080349C49E4
:100BB00008F020E0222341F08D819E8120E43CE971
:100BC000FC01318320830DC08B819C81FC018081DD
:100BD00091819C012C5F3F4F8D819E81FC0131836F
:100BE000208389819A81895F9A4F2FEFFC012083AE
:100BF000000026960FB6F894DEBF0FBECDBFDF9182
:100C0000CF9108951F920F920FB60F9211240BB639
:100C10000F922F933F934F935F936F937F938F9395
:100C20009F93AF93BF93EF93FF93CF93DF93CDB792
:100C3000DEB748E850E064E870E081E090E076DEFE
:100C40000000DF91CF91FF91EF91BF91AF919F9104
:100C50008F917F916F915F914F913F912F910F9065
:100C60000BBE0F900FBE0F901F9018951F920F9202
:100C70000FB60F9211240BB60F922F933F934F9301
:100C80005F936F937F938F939F93AF93BF93EF93F4
:100C9000FF93CF93DF93CDB7DEB748E950E064E927
:100CA00070E082E090E042DE0000DF91CF91FF91A2
:100CB000EF91BF91AF919F918F917F916F915F91D4
:100CC0004F913F912F910F900BBE0F900FBE0F9041
:100CD0001F9018951F920F920FB60F9211240BB60A
:100CE0000F922F933F934F935F936F937F938F93C5
:100CF0009F93AF93BF93EF93FF93CF93DF93CDB7C2
:100D0000DEB748EA50E064EA70E083E090E00EDE8F
:100D10000000DF91CF91FF91EF91BF91AF919F9133
:100D20008F917F916F915F914F913F912F910F9094
:100D30000BBE0F900FBE0F901F9018951F920F9231
:100D40000FB60F9211240BB60F922F933F934F9330
:100D50005F936F937F938F939F93AF93BF93EF9323
:100D6000FF93CF93DF93CDB7DEB748E251E064E263
:100D700071E080E090E0DADD0000DF91CF91FF913B
:100D8000EF91BF91AF919F918F917F916F915F9103
:100D90004F913F912F910F900BBE0F900FBE0F9070
:100DA0001F901895CF93DF931F921F92CDB7DEB798
:100DB0009A83898389819A81019701F580E890E07F
:100DC000FC01108281E890E022E0FC01208384E8AD
:100DD00090E0FC011182108286E390E0FC0120810A
:100DE00086E390E02260FC0120838FE690E0FC0126
:100DF00020818FE690E02260FC01208389819A8126
:100E00000297C1F480E990E0FC01108281E990E052
:100E100022E0FC01208384E990E0FC011182108231
:100E200088E390E022E0FC01208381E790E022E06B
:100E3000FC01208389819A810397C1F480EA90E0C4
:100E4000FC01108281EA90E022E0FC01208384EA28
:100E500090E0FC011182108289E390E022E0FC0125
:100E6000208382E790E022E0FC01208389819A813F
:100E7000892BC1F480E291E0FC01108281E291E0D3
:100E800022E0FC01208384E291E0FC0111821082C7
:100E90008AE390E022E0FC01208383E790E022E0F7
:100EA000FC01208300000F900F90DF91CF910895F7
:100EB000CF93DF9300D0CDB7DEB79B838A831982AF
:100EC00089818C3028F52A813B81C901880F991FBF
:100ED000820F931F880F991F880F991F9C0189818A
:100EE000882F90E0280F391FC901880F991F820FA2
:100EF000931F89589B4FFC01808186FB882780F9CE
:100F0000813011F481E005C089818F5F8983D8CF5A
:100F100080E00F900F900F90DF91CF910895CF93C5
:100F2000DF931F921F92CDB7DEB79A83898380919A
:100F30000B058033E8F420910B0581E0820F80934C
:100F40000B0589819A81FC01208389819A81FC01AA
:100F50008081282F30E0C901880F991F820F931FCD
:100F600088589B4F28EB3BE0FC013183208305C070
:100F700089819A812FEFFC01208300000F900F9050
:100F8000DF91CF910895CF93DF9300D01F92CDB71B
:100F9000DEB79A8389837C836B836B817C818981B3
:100FA0009A8120E639E040E252E007D00F900F909E
:100FB0000F900F90DF91CF910895CF93DF9300D0E2
:100FC00000D000D01F92CDB7DEB79C838B837E8389
:100FD0006D8358874F833A8729878B819C81FC01D9
:100FE0008081803308F06EC08D8161E025D48B81D3
:100FF0009C81FC018081282F30E04D814F73C90115
:10100000880F991F820F931F89589B4F242F2F738E
:10101000FC013081307C232BFC01208320E232E074
:101020008F819885A901481B590BCA0199230CF49B
:1010300003969595879595958795282F8B819C810B
:10104000FC01218320E639E089859A85A901481BA6
:10105000590BCA0199230CF403969595879595959C
:101060008795282F8B819C81FC0122838B819C8119
:10107000FC0190818BEA989F812D1124869586959D
:101080008695882F90E09A83898389819A8110DFE1
:10109000982F81E08927882319F089819A8182DE3F
:1010A0008B819C81FC018081282F30E0C901880F51
:1010B000991F820F931F89589B4FFC012081206448
:1010C000FC0120838B819C81FC0180812A960FB6D4
:1010D000F894DEBF0FBECDBFDF91CF9108956F9220
:1010E0007F928F929F92AF92BF92CF92DF92EF92B8
:1010F000FF920F931F93CF93DF9300D01F92CDB732
:10110000DEB79A8389837C836B838B819C81803259
:1011100092400CF05CC08B819C81992314F41C825A
:101120001B828B819C81853B910524F084EB90E0B0
:101130009C838B8389819A81FC018281082E000C1B
:10114000990B28E532E0A901481B590BCA01880F09
:10115000991F880F991F092E000CAA0BBB0B298120
:101160003A81F9012181022E000C330B48E850E04E
:10117000BA01621B730B9B01220F331F220F331F17
:10118000032E000C440B550B6B817C813B01770FC8
:10119000880899086B2F6F936A2F6F93692F6F934D
:1011A0008F9359016A0114EBE12EF12C00E010E05D
:1011B00020E030E0A901C401B3010E9480150F9026
:1011C0000F900F900F90DC01CB019C838B832B81C0
:1011D0003C8189819A81B90114D000000F900F9051
:1011E0000F900F90DF91CF911F910F91FF90EF9093
:1011F000DF90CF90BF90AF909F908F907F906F9037
:101200000895CF93DF9300D000D0CDB7DEB79C8395
:101210008B837E836D838B819C81FC01808189839C
:101220008981803308F097C08B819C81FC0181818A
:10123000082E000C990B28E830E0A901481B590B37
:10124000CA01880F991F880F991F2D813E81281789
:101250003907A4F48B819C81FC018181082E000C4C
:10126000990B28E830E0A901481B590BCA01880FE7
:10127000991F880F991F9E838D8329C08B819C8124
:10128000FC018281082E000C990B28E532E0A901AF
:10129000481B590BCA01880F991F880F991F2D8170
:1012A0003E81821793079CF48B819C81FC01828193
:1012B000082E000C990B28E532E0A901481B590BB8
:1012C000CA01880F991F880F991F9E838D838D8176
:1012D0009E8102979E838D838D819E81092E000CB5
:1012E000AA0BBB0B880F991FAA1FBB1F880F991F42
:1012F000AA1FBB1F880F991FAA1FBB1F880F991F0A
:10130000AA1FBB1FBB231CF40796A11DB11D689427
:1013100012F8B595A795979587951694D1F79E8362
:101320008D838FE590E0FC0180818A83F894898128
:10133000282F30E04D815E81C901880F991F820FEF
:10134000931F88589B4FFC01518340838FE590E0A9
:101350002A81FC012083000026960FB6F894DEBF98
:101360000FBECDBFDF91CF9108952F923F924F9244
:101370005F926F927F928F929F92AF92BF92CF9225
:10138000DF92EF92FF920F931F93CF93DF931F9201
:101390001F92CDB7DEB79A83898389819A81FC0138
:1013A0008281082E000C990B28E532E0A901481B28
:1013B000590BCA01880F991F880F991F1C01990F9B
:1013C0004408550889819A81FC018181082E000C0E
:1013D000990B28E830E0A901481B590BCA01880F76
:1013E000991F880F991F3C01990F880899088981D6
:1013F0009A8130D00196092E000CAA0BBB0B1F92CC
:101400001F921F9224EB2F93A12CB12C6501820116
:101410007101A4019301BC01CD010E9480150F90C0
:101420000F900F900F90DC01CB010F900F90DF9188
:10143000CF911F910F91FF90EF90DF90CF90BF90D1
:10144000AF909F908F907F906F905F904F903F9064
:101450002F900895CF93DF9300D01F92CDB7DEB7C2
:101460009C838B838B819C81FC0180818F3F51F118
:101470008B819C81FC018081282F30E0C901880F7D
:10148000991F820F931F88589B4FFC018081918187
:10149000880F991F880F991F880F991FCC01A0E012
:1014A000B0E0BB231CF40F96A11DB11D689413F886
:1014B000B595A795979587951694D1F702969A8337
:1014C000898302C01A82198289819A810F900F90B4
:1014D0000F900F90DF91CF9108951F920F920FB64A
:1014E0000F9211248F939F93AF93BF93CF93DF936A
:1014F000CDB7DEB72597DEBFCDBF809110059091A7
:101500001105A0911205B091130589839A83AB83CD
:10151000BC83809114058D8389819A81AB81BC81C4
:101520000196A11DB11D89839A83AB83BC838D81F4
:101530008D5F8D838D818D3770F08D818D578D837B
:1015400089819A81AB81BC810196A11DB11D8983DE
:101550009A83AB83BC838D818093140589819A81A2
:10156000AB81BC818093100590931105A093120567
:10157000B093130580910C0590910D05A0910E0577
:10158000B0910F050196A11DB11D80930C0590939C
:101590000D05A0930E05B0930F0500000F900F905E
:1015A0000F900F900F90DF91CF91BF91AF919F91CE
:1015B0008F910F900FBE0F901F901895CF93DF93D0
:1015C00000D000D0CDB7DEB78FE590E0FC01808180
:1015D0008D83F89480910C0590910D05A0910E05D6
:1015E000B0910F0589839A83AB83BC8386E490E036
:1015F000FC0180818E8385E390E0FC018081882F4F
:1016000090E081709927892B71F08E818F3F59F07E
:1016100089819A81AB81BC810196A11DB11D89830D
:101620009A83AB83BC838FE590E02D81FC012083FE
:1016300089819A81AB81BC812227382F492F5A2F6B
:101640008E81882F90E0A0E0B0E0820F931FA41F4E
:10165000B51F880F991FAA1FBB1F880F991FAA1FAC
:10166000BB1FBC01CD0126960FB6F894DEBF0FBE9E
:10167000CDBFDF91CF910895CF93DF93CDB7DEB784
:10168000789484E490E0FC01208184E490E022607E
:10169000FC01208384E490E0FC01208184E490E05C
:1016A0002160FC01208385E490E0FC01208185E439
:1016B00090E02260FC01208385E490E0FC01208121
:1016C00085E490E02160FC0120838EE690E0FC013F
:1016D00020818EE690E02160FC01208381E890E08B
:1016E000FC01108281E890E0FC01208181E890E01B
:1016F0002260FC01208381E890E0FC01208181E8E8
:1017000090E02160FC01208380E890E0FC012081D2
:1017100080E890E02160FC01208381EB90E0FC01F7
:10172000208181EB90E02460FC01208380EB90E03D
:10173000FC01208180EB90E02160FC01208381E9A5
:1017400090E0FC01208181E990E02260FC0120838F
:1017500081E990E0FC01208181E990E02160FC01B9
:10176000208380E990E0FC01208180E990E0216005
:10177000FC01208381EA90E0FC01208181EA90E075
:101780002260FC01208381EA90E0FC01208181EA53
:1017900090E02160FC01208380EA90E0FC01208140
:1017A00080EA90E02160FC01208381E291E0FC016D
:1017B000208181E291E02260FC01208381E291E0BE
:1017C000FC01208181E291E02160FC01208380E224
:1017D00091E0FC01208180E291E02160FC01208306
:1017E0008AE790E0FC0120818AE790E02460FC0118
:1017F00020838AE790E0FC0120818AE790E0226064
:10180000FC0120838AE790E0FC0120818AE790E0D8
:101810002160FC0120838AE790E0FC0120818AE7B7
:1018200090E02068FC01208381EC90E0FC011082B4
:101830000000DF91CF910895CF93DF93CDB7DEB74E
:1018400069970FB6F894DEBF0FBECDBF888F698F42
:10185000888D882F90E0825A9E4F9A838983898150
:101860009A81FC0184918B838B818C83888D882F56
:1018700090E0885E9E4F9E838D838D819E81FC01CA
:1018800084918F838F8188878885882309F495C008
:101890008885882F90E0880F991F8C519F4F9A87D9
:1018A000898789859A85FC0125913491CF013C87F0
:1018B0002B879A8789878B859C859E878D878885CE
:1018C000882F90E0880F991F82509F4F988B8F87A9
:1018D0008F859889FC0125913491CF013A8B298B12
:1018E000988B8F8789899A899C8B8B8B898D88238C
:1018F00031F58FE590E0FC0180818F8BF8948D8528
:101900009E85FC018081982F8C8180958923282FCA
:101910008D859E85FC0120838B899C89FC018081BB
:10192000982F8C8180958923282F8B899C89FC0195
:1019300020838FE590E02F89FC0120833FC0898DB3
:10194000823021F58FE590E0FC0180818E8BF89448
:101950008D859E85FC018081982F8C8180958923BF
:10196000282F8D859E85FC0120838B899C89FC0115
:1019700090818C81292F282B8B899C89FC012083C5
:101980008FE590E02E89FC01208318C08FE590E060
:10199000FC0180818D8BF8948D859E85FC01908162
:1019A0008C81292F282B8D859E85FC0120838FE536
:1019B00090E02D89FC01208301C0000069960FB6DC
:1019C000F894DEBF0FBECDBFDF91CF910895CF93C6
:1019D000DF931F92CDB7DEB789838981882F90E08E
:1019E000092E000CAA0BBB0B0197A109B10982318A
:1019F0009105A105B10508F0B9C0FC018827EC5F8D
:101A0000F24F8F4F0C944716340D3E0D160D200DDE
:101A10002A0DB60D480D520D5C0D660D700D7A0D38
:101A2000840D8E0DB60D980DA20DAC0D80E890E0E2
:101A3000FC01208180E890E02F77FC01208396C094
:101A400080E890E0FC01208180E890E02F7DFC019F
:101A500020838CC080E890E0FC01208180E890E049
:101A6000277FFC01208382C084E490E0FC01208178
:101A700084E490E02F77FC01208378C084E490E038
:101A8000FC01208184E490E02F7DFC0120836EC066
:101A900080EB90E0FC01208180EB90E02F77FC014F
:101AA000208364C080EB90E0FC01208180EB90E01B
:101AB0002F7DFC0120835AC080E990E0FC01208149
:101AC00080E990E02F77FC01208350C080E990E00E
:101AD000FC01208180E990E02F7DFC01208346C03D
:101AE00080E990E0FC01208180E990E0277FFC0103
:101AF00020833CC080EA90E0FC01208180EA90E0F5
:101B00002F77FC01208332C080EA90E0FC01208125
:101B100080EA90E02F7DFC01208328C080EA90E0DD
:101B2000FC01208180EA90E0277FFC0120831EC019
:101B300080E291E0FC01208180E291E02F77FC01BE
:101B4000208314C080E291E0FC01208180E291E0DA
:101B50002F7DFC0120830AC080E291E0FC012081FE
:101B600080E291E0277FFC012083000000000F90BD
:101B7000DF91CF910895CF93DF93CDB7DEB765970F
:101B80000FB6F894DEBF0FBECDBF8C8B6D8B8C89EA
:101B9000882F90E08C559E4F9A83898389819A8102
:101BA000FC0184918B838B818C838C89882F90E0BE
:101BB000825A9E4F9E838D838D819E81FC018491EC
:101BC0008F838F8188878C89882F90E0885E9E4FD5
:101BD0009A87898789859A85FC0184918B878B8573
:101BE0008C878C85882309F444C08C81882311F06C
:101BF0008C81EDDE8C85882F90E0880F991F8250B4
:101C00009F4F9E878D878D859E85FC012591349100
:101C1000CF01388B2F879E878D878F8598899A8BE8
:101C2000898B8FE590E0FC0180818B8BF8948D8906
:101C3000882371F489899A89FC018081982F88858D
:101C400080958923282F89899A89FC0120830BC0DC
:101C500089899A89FC0190818885292F282B898977
:101C60009A89FC0120838FE590E02B89FC01208379
:101C700001C0000065960FB6F894DEBF0FBECDBF61
:101C8000DF91CF910895CF93DF93CDB7DEB7F8946E
:101C900081E0DF91CF910895CF93DF931F921F9240
:101CA000CDB7DEB79A8389838FE590E029813A81A9
:101CB000F9012081FC01208300000F900F90DF913B
:101CC000CF910895CF93DF9300D0CDB7DEB79B833C
:101CD0008A838A819B81FC01848D882F90E02A81F0
:101CE0003B81820F931F835A9F4FFC018081898320
:101CF0008A819B81FC01848D882F90E001968F73EF
:101D00009078992324F40197806C9F6F0196282F77
:101D10008A819B81FC01248F8A819B81FC018689B9
:101D200097892981FC0120838A819B81FC0180891C
:101D30009189FC0180818370282F20648A819B8196
:101D4000FC0180899189FC0120838A819B81FC01AF
:101D5000238D8A819B81FC01948D81E0291709F0F4
:101D600080E0882379F08A819B81FC0182899389B4
:101D7000FC0120818A819B81FC01828993892F7DCE
:101D8000FC01208300000F900F900F90DF91CF9106
:101D90000895CF93DF9300D000D000D0CDB7DEB749
:101DA0009C838B834D835E836F837887298780E054
:101DB00099E0ADE3B0E02D813E814F815885BC01B3
:101DC000CD0127D7DA01C9010197A109B109B6955B
:101DD000A795979587959A8389838B819C81FC0130
:101DE0008089918922E0FC0120838D819E81AF81D1
:101DF000B8858115914EA105B10529F089819A8197
:101E000081159041E8F08B819C81FC01808991894A
:101E1000FC01108280E894E8AEE1B0E02D813E81C3
:101E20004F815885BC01CD01F4D6DA01C901019773
:101E3000A109B109B695A795979587959A83898346
:101E400089819A81292F33278B819C81FC0184858C
:101E50009585FC0120838B819C81FC01868597857B
:101E60002981FC0120838B819C81FC01108E8B8158
:101E70009C81FC01848995892985FC0120838B81C3
:101E80009C81FC0182899389FC0120818B819C814A
:101E9000FC01828993892061FC0120838B819C81D4
:101EA000FC0182899389FC0120818B819C81FC014A
:101EB000828993892860FC0120838B819C81FC01AD
:101EC00082899389FC0120818B819C81FC0182891C
:101ED00093892068FC0120838B819C81FC0182898D
:101EE0009389FC0120818B819C81FC0182899389EB
:101EF0002F7DFC012083000029960FB6F894DEBFE9
:101F00000FBECDBFDF91CF910895CF93DF931F9286
:101F10001F92CDB7DEB79A83898389819A81FC01AC
:101F2000818D882F90E09C01205C3F4F89819A81B0
:101F3000FC01828D882F90E0A901481B590BCA0132
:101F40008F7399270F900F90DF91CF910895CF93C2
:101F5000DF931F921F92CDB7DEB79A838983898161
:101F60009A81FC01218D89819A81FC01928D81E009
:101F7000291709F080E0882319F08FEF9FEF0FC039
:101F800089819A81FC01828D882F90E029813A8194
:101F9000820F931F4D96FC018081882F90E00F9057
:101FA0000F90DF91CF910895CF93DF9300D0CDB7FD
:101FB000DEB79B838A838A819B81FC01218D8A8184
:101FC0009B81FC01928D81E0291709F080E0882334
:101FD00019F08FEF9FEF1CC08A819B81FC01828DDD
:101FE000882F90E02A813B81820F931F4D96FC0140
:101FF000808189838A819B81FC01828D8F5F282F5C
:102000002F738A819B81FC01228F8981882F90E028
:102010000F900F900F90DF91CF910895CF93DF93A2
:1020200000D01F92CDB7DEB79C838B838B819C81C0
:10203000FC01838D89838B819C81FC01848D8A8343
:1020400099818A81981768F08981882F90E02FE321
:1020500030E0281B390B8A81882F90E0820F931F74
:102060000BC08A81282F30E08981882F90E0A90158
:10207000481B590BCA0101970F900F900F900F90BA
:10208000DF91CF910895CF93DF931F921F92CDB729
:10209000DEB79A83898389819A81FC01908D81E0E2
:1020A0008927882309F04DC089819A81FC018289A2
:1020B0009389FC018081882F90E080729927892B79
:1020C00069F489819A81FC0180899189FC01808170
:1020D000882F90E080749927892B11F481E001C04A
:1020E00080E0882379F18FE590E0FC0180818823EE
:1020F0007CF089819A81FC0182899389FC0180812D
:10210000882F90E080729927892B11F081E001C01F
:1021100080E0882349F289819A81FC018089918934
:10212000FC018081882F90E08072992721E0892B23
:1021300009F420E0222309F4B7CF89819A81C2DD16
:10214000B3CF00000F900F90DF91CF910895CF9300
:10215000DF9300D000D01F921F92CDB7DEB79F83D0
:102160008E8368878E819F8121E0FC01208F8E8184
:102170009F81FC01238D8E819F81FC01848D281716
:1021800079F48E819F81FC0180899189FC01808195
:10219000882F90E080729927892B11F081E001C08F
:1021A00080E0882359F18FE590E0FC0180818C83E9
:1021B0006ADD898389818823D9F08E819F81FC0122
:1021C000868997892885FC0120838E819F81FC0167
:1021D00080899189FC0180818370282F20648E8101
:1021E0009F81FC0180899189FC0120831982E2CFC3
:1021F000CE01049651DD81E090E06EC08E819F811A
:10220000FC01838D882F90E001968F73907899233D
:1022100024F40197806C9F6F01968B838E819F8140
:10222000FC01948D81E02B81291709F080E088233F
:10223000F9F08FE590E0FC0180818095881F882768
:10224000881F882359F38E819F81FC0180899189A1
:10225000FC018081882F90E08072992721E0892BF2
:1022600009F420E02223D1F28E819F812BDDD6CF8D
:102270008E819F81FC01838D882F90E02E813F818C
:10228000820F931F835A9F4F2885FC0120838FE57F
:1022900090E0FC0180818D83F6DC8A838A8188232B
:1022A000B1F08E819F812B81FC01238F8E819F81D4
:1022B000FC0182899389FC0120818E819F81FC0130
:1022C000828993892062FC0120831A82E7CFCE01A4
:1022D0000596E2DC81E090E028960FB6F894DEBF28
:1022E0000FBECDBFDF91CF910895CF93DF931F92A3
:1022F0001F92CDB7DEB79A83898327E534E08981C1
:102300009A81FC013183208389819A81FC011382A7
:10231000128200000F900F90DF91CF910895CF931C
:10232000DF931F921F92CDB7DEB79A83898380E037
:1023300090E00F900F90DF91CF910895CF93DF93AE
:102340001F921F92CDB7DEB79A83898300000F904A
:102350000F90DF91CF910895CF93DF931F921F923B
:10236000CDB7DEB79A83898389819A81BEDF25E460
:1023700034E089819A81FC013183208329813A816B
:1023800088EE93E0A0E0B0E0F90184839583A68312
:10239000B78300000F900F90DF91CF910895CF92F7
:1023A000DF92EF92FF920F931F93CF93DF93CDB7FE
:1023B000DEB72E970FB6F894DEBF0FBECDBF9A835F
:1023C00089837C836B835E834D8338872F831A8751
:1023D0000987FC86EB86DE86CD8689819A81BCDF03
:1023E00023E334E089819A81FC0131832083898150
:1023F0009A812B813C81FC013587248789819A81D0
:102400002D813E81FC013787268789819A812F8122
:102410003885FC01318B208B89819A8129853A8509
:10242000FC01338B228B89819A812B853C85FC01B1
:10243000358B248B89819A812D853E85FC01378BD4
:10244000268B89819A81FC01118E89819A81FC01F8
:10245000128E89819A81FC01138E89819A81FC01F7
:10246000148E00002E960FB6F894DEBF0FBECDBFBF
:10247000DF91CF911F910F91FF90EF90DF90CF9060
:102480000895CF93DF9300D01F92CDB7DEB79C8322
:102490008B838B819C81FC0180899189FC018081E7
:1024A000882F90E08470992721E0892B09F020E0A3
:1024B000222371F18B819C81FC0186899789FC0123
:1024C000808189838B819C81FC01818D8F5F8F73DB
:1024D0008A838B819C81FC01928D81E02A8129175E
:1024E00009F480E08823D9F08B819C81FC01818DE7
:1024F000882F90E02B813C81820F931F4D9629817C
:10250000FC0120838B819C812A81FC01218F07C0E3
:102510008B819C81FC0186899789FC018081000068
:102520000F900F900F900F90DF91CF9108951F9211
:102530000F920FB60F9211240BB60F922F933F9369
:102540004F935F936F937F938F939F93AF93BF93BB
:10255000EF93FF93CF93DF93CDB7DEB785E195E09F
:1025600090DF0000DF91CF91FF91EF91BF91AF918C
:102570009F918F917F916F915F914F913F912F919B
:102580000F900BBE0F900FBE0F901F9018951F92CB
:102590000F920FB60F9211240BB60F922F933F9309
:1025A0004F935F936F937F938F939F93AF93BF935B
:1025B000EF93FF93CF93DF93CDB7DEB785E195E03F
:1025C00081DB0000DF91CF91FF91EF91BF91AF913F
:1025D0009F918F917F916F915F914F913F912F913B
:1025E0000F900BBE0F900FBE0F901F901895CF92BB
:1025F000DF92EF92FF920F931F93CF93DF9300D060
:102600001F92CDB7DEB79A8389837C836B838981E0
:102610009A810197C9F48B819C810196A9F40F2EB0
:10262000F6ECCF2ED12CF02D0F2EF2ECEF2EF12C5C
:10263000F02D01EC10E020EC30E044EC50E065ECD3
:1026400070E085E195E0ABDE00000F900F900F90F9
:102650000F90DF91CF911F910F91FF90EF90DF903E
:10266000CF900895CF93DF93CDB7DEB76FEF7FEFB5
:1026700081E090E0BCDFDF91CF9108951F920F922F
:102680000FB60F9211240BB60F922F933F934F93D7
:102690005F936F937F938F939F93AF93BF93EF93CA
:1026A000FF93CF93DF93CDB7DEB782EB95E0E9DE02
:1026B0000000DF91CF91FF91EF91BF91AF919F917A
:1026C0008F917F916F915F914F913F912F910F90DB
:1026D0000BBE0F900FBE0F901F9018951F920F9278
:1026E0000FB60F9211240BB60F922F933F934F9377
:1026F0005F936F937F938F939F93AF93BF93EF936A
:10270000FF93CF93DF93CDB7DEB782EB95E0DADAB4
:102710000000DF91CF91FF91EF91BF91AF919F9119
:102720008F917F916F915F914F913F912F910F907A
:102730000BBE0F900FBE0F901F901895CF92DF9297
:10274000EF92FF920F931F93CF93DF9300D01F92CE
:10275000CDB7DEB79A8389837C836B8389819A8125
:102760000197C9F48B819C810196A9F40F2EFEEC90
:10277000CF2ED12CF02D0F2EFAECEF2EF12CF02DC8
:1027800009EC10E028EC30E04CEC50E06DEC70E02F
:1027900082EB95E004DE00000F900F900F900F90F9
:1027A000DF91CF911F910F91FF90EF90DF90CF902D
:1027B0000895CF93DF93CDB7DEB76FEF7FEF81E062
:1027C00090E0BCDFDF91CF9108951F920F920FB67A
:1027D0000F9211240BB60F922F933F934F935F9359
:1027E0006F937F938F939F93AF93BF93EF93FF93D9
:1027F000CF93DF93CDB7DEB78FE496E042DE0000E3
:10280000DF91CF91FF91EF91BF91AF919F918F9108
:102810007F916F915F914F913F912F910F900BBEE0
:102820000F900FBE0F901F9018951F920F920FB62A
:102830000F9211240BB60F922F933F934F935F93F8
:102840006F937F938F939F93AF93BF93EF93FF9378
:10285000CF93DF93CDB7DEB78FE496E033DA000095
:10286000DF91CF91FF91EF91BF91AF919F918F91A8
:102870007F916F915F914F913F912F910F900BBE80
:102880000F900FBE0F901F901895CF92DF92EF928E
:10289000FF920F931F93CF93DF9300D01F92CDB77A
:1028A000DEB79A8389837C836B8389819A810197C0
:1028B000C9F48B819C810196A9F40F2EF6EDCF2EE1
:1028C000D12CF02D0F2EF2EDEF2EF12CF02D01ED8D
:1028D00010E020ED30E044ED50E065ED70E08FE475
:1028E00096E05DDD00000F900F900F900F90DF914C
:1028F000CF911F910F91FF90EF90DF90CF900895AF
:10290000CF93DF93CDB7DEB76FEF7FEF81E090E03D
:10291000BCDFDF91CF9108951F920F920FB60F92F7
:1029200011240BB60F922F933F934F935F936F93A6
:102930007F938F939F93AF93BF93EF93FF93CF9327
:10294000DF93CDB7DEB78CEE96E09BDD0000DF9124
:10295000CF91FF91EF91BF91AF919F918F917F9117
:102960006F915F914F913F912F910F900BBE0F9000
:102970000FBE0F901F9018951F920F920FB60F92D7
:1029800011240BB60F922F933F934F935F936F9346
:102990007F938F939F93AF93BF93EF93FF93CF93C7
:1029A000DF93CDB7DEB78CEE96E08CD90000DF91D7
:1029B000CF91FF91EF91BF91AF919F918F917F91B7
:1029C0006F915F914F913F912F910F900BBE0F90A0
:1029D0000FBE0F901F901895CF92DF92EF92FF924B
:1029E0000F931F93CF93DF9300D01F92CDB7DEB725
:1029F0009A8389837C836B8389819A810197D9F437
:102A00008B819C810196B9F40F2EF6E3CF2EDD2445
:102A1000D394F02D0F2EF2E3EF2EFF24F394F02D3C
:102A200001E311E020E331E044E351E065E371E0CC
:102A30008CEE96E0B4DC00000F900F900F900F909A
:102A4000DF91CF911F910F91FF90EF90DF90CF908A
:102A50000895CF93DF93CDB7DEB76FEF7FEF81E0BF
:102A600090E0BADFDF91CF910895CF93DF9300D04C
:102A700000D01F921F92CDB7DEB79C838B837E83DD
:102A80006D8358874F831A8219828F8198859C01A4
:102A90002150310938872F8321E0892B09F420E068
:102AA000222319F18B819C81FC0180819181FC01A1
:102AB000208131818D819E81AC014F5F5F4F5E83AC
:102AC0004D83FC0140818B819C81642FF901199514
:102AD00021E0892B09F420E0222331F089819A81B9
:102AE00001969A838983D1CF000089819A812896A3
:102AF0000FB6F894DEBF0FBECDBFDF91CF91089522
:102B0000AF92BF92CF92DF92EF92FF920F931F93FB
:102B1000CF93DF93CDB7DEB760970FB6F894DEBFE3
:102B20000FBECDBF69837A838B839C832D833E83C5
:102B30004F835887E986FA860B871C87AD86BE8649
:102B4000CF86D88A29813A814B815C818D819E8193
:102B5000AF81B88579018A01E81AF90A0A0B1B0BC3
:102B60002E8D3F8D48A159A18D859E85AF85B88951
:102B700059016A01A81AB90ACA0ADB0AD601C501B5
:102B8000A8019701BC01CD0135D07B018C012985BD
:102B90003A854B855C858D819E81AF81B885281BE8
:102BA000390B4A0B5B0BC801B70155D0DA01C901DB
:102BB0009C01AD018D859E85AF85B889820F931FDD
:102BC000A41FB51FBC01CD0160960FB6F894DEBFFF
:102BD0000FBECDBFDF91CF911F910F91FF90EF906E
:102BE000DF90CF90BF90AF900895CF93DF93CDB794
:102BF000DEB76ED0DB018F939F9351D0BF91AF9121
:102C0000A29F800D911DA39F900DB29F900D112446
:102C10000895A1E21A2EAA1BBB1BFD010DC0AA1F1D
:102C2000BB1FEE1FFF1FA217B307E407F50720F035
:102C3000A21BB30BE40BF50B661F771F881F991FB0
:102C40001A9469F760957095809590959B01AC01F9
:102C5000BD01CF010895052E97FB16F400940FD007
:102C600057FD05D0D6DF07FC02D046F408C05095CA
:102C70004095309521953F4F4F4F5F4F0895909568
:102C80008095709561957F4F8F4F9F4F0895EE0F00
:102C9000FF1F881F8BBF0790F691E02D199409D074
:102CA000A59F900DB49F900DA49F800D911D1124A0
:102CB0000895A29FB001B39FC001A39F700D811D15
:102CC0001124911DB29F700D811D1124911D089535
:0C2CD00081E090E0F89400C0F894FFCF81
:102CDC006701000102030405060708090A0B0C0D25
:102CEC000E0F101112131415161718191A1B1C1D80
:102CFC001E1F202122232425262728292A2B2C2D70
:102D0C002E2F303132333435363738393A3B3C3D5F
:102D1C003E3F404142434445464748494A4B4C4D4F
:102D2C004E4F505152535455565758595A5B5C5D3F
:102D3C005E5F606162636465666768696A6B6C6D2F
:102D4C006E6F707172737475767778797A7B7C7D1F
:102D5C007E7F808182838485868788898A8B8C8D0F
:102D6C008E8F909192939495969798999A9B9C9DFF
:102D7C009E9FA0A1A2A3A4A5A6A7A8A9AAABACADEF
:102D8C00AEAFB0B1B2B3B4B3B2B1B0AFAEADACAB39
:102D9C00AAA9A8A7A6A5A4A3A2A1A09F9E9D9C9BFF
:102DAC009A999897969594939291908F8E8D8C8BEF
:102DBC008A898887868584838281807F7E7D7C7BDF
:102DCC007A797877767574737271706F6E6D6C6BCF
:102DDC006A696867666564636261605F5E5D5C5BBF
:102DEC005A595857565554535251504F4E4D4C4BAF
:102DFC004A494847464544434241403F3E3D3C3B9F
:102E0C003A393837363534333231302F2E2D2C2B8E
:102E1C002A292827262524232221201F1E1D1C1B7E
:102E2C001A191817161514131211100F0E0D0C0B6E
:102E3C000A09080706050403020100010203040540
:102E4C00060708090A0B0C0D0E0F1011121314159E
:102E5C00161718191A1B1C1D1E1F2021222324258E
:102E6C00262728292A2B2C2D2E2F3031323334357E
:102E7C00363738393A3B3C3D3E3F4041424344456E
:102E8C00464748494A4B4C4D4E4F5051525354555E
:102E9C00565758595A5A59585756555453525150C7
:102EAC004F4E4D4C4B4A494847464544434241409E
:102EBC003F3E3D3C3B3A393837363534333231308E
:102ECC002F2E2D2C2B2A292827262524232221207E
:102EDC001F1E1D1C1B1A191817161514131211106E
:102EEC000F0E0D0C0B0A090807060504030201B4AA
:102EFC00CDCCCC3D000000000100000001660400B8
:102F0C00000000A71035150E104310850FD40FA725
:102F1C000F00000000F51535158F119E11F515F5F4
:102F2C0015F51500000000F51535158F119E1100D3
:00000001FF
