:10000000F9C0000027C1000025C1000023C1000085
:1000100021C100001FC100001DC100001BC1000064
:1000200019C1000017C1000015C1000013C1000074
:1000300011C100000FC100000DC100000BC1000084
:1000400009C1000019C3000005C1000003C1000080
:1000500001C10000FFC00000FDC000001AC5000083
:10006000F9C00000E0C700000C944908F3C000008C
:10007000F1C00000EFC00000EDC00000EBC00000C8
:1000800028C30000E7C00000E5C00000E3C0000096
:100090000C949F080C94D508DDC00000DBC0000064
:1000A000D9C00000D7C0000041C30000D3C0000089
:1000B000D1C00000CFC00000CDC0000064C300006C
:1000C000C9C00000C7C00000C5C000000C942B09C7
:1000D0000C946109BFC000000C94B7090C94ED09A1
:1000E000B9C0000000000A0B02090C0D0E0807033E
:1000F00004010000000000000000000000000000FB
:1001000000000000000000000000000000000000EF
:1001100012111000000000000000000000000000AC
:100120000000000000000000000001021020200874
:100130000810204010204080020102010804020142
:1001400001020408102040808040201008040201B1
:10015000800402018040201008040201080402010A
:100160000102040810204080010204081020408091
:1001700005050505070508080808020202020A0A23
:100180000808040404040101010101010101030341
:10019000030303030303040707070C0C0C0C0C0CEC
:1001A0000C0C0202020206060606060606060B0BE9
:1001B0000B0B0B0B0B0B00002200250028002B0063
:1001C0002E003100340002010000050108010B017E
:1001D00000002100240027002A002D0030003300F9
:1001E00001010000040107010A013B017208FE0839
:1001F0008A09160A11241FBECFEFD1E2DEBFCDBFA0
:1002000000E00CBF14E0A0E0B2E0E6E5F6E100E0BB
:100210000BBF02C007900D92AE33B107D9F727E0AC
:10022000AEE3B4E001C01D92A237B207E1F710E0DF
:10023000CAEFD0E000E006C021970109802FFE013F
:100240000E94080BC53FD10780E00807A9F726D117
:100250000C94290BD5CE70E023E0829FC0011124BD
:10026000825C9B4F81C370E023E0829FC001112418
:10027000825C9B4FB5C38EE394E0B2D281E494E0FC
:10028000AFC2CF93DF93E0916B07F0916C07E05022
:10029000FE4F6281653B08F064EB80E0E4DFC091D3
:1002A0006B07D0916C078091240490912504C80FAE
:1002B000D91FE0916D07F0E0E659FC4F6081653B86
:1002C00008F064EB81E0CFDF80916D079091280406
:1002D000890F20910002309101022C173D0798F4FC
:1002E000209120043091210430936C0720936B07F8
:1002F00090911F04981710F48091260480936D0745
:10030000DF91CF910895D0936C07C0936B07F0CF26
:10031000CF92DF92EF92FF921F93CF93DF931092D1
:10032000450410924404C3E6D7E08DE0FE0111922B
:100330008A95E9F711E01C87C12CD12C7601C39472
:10034000CC82DD82EE82FF8264E080E084DF1B8766
:10035000C882D982EA82FB8269E081E07CDF8091F9
:1003600022049091230499878887809127048A87A3
:10037000DF91CF911F91FF90EF90DF90CF90089584
:10038000089540E855E260E070E090E080E000C051
:100390008130910571F01CF4892B39F00895823079
:1003A000910559F0039769F0089526E08FEE94E0E7
:1003B000DAC526E08CE895E0FBCF26E089E296E0FE
:1003C000F7CF26E086EC96E0F3CF0895CF92DF9248
:1003D000EF92FF920F931F93A6D3609346047093FE
:1003E0004704809348049093490400914A04109173
:1003F0004B0420914C0430914D046B017C01C01AD8
:10040000D10AE20AF30A9701860100311742210559
:10041000310508F160934A0470934B0480934C04B7
:1004200090934D0425D07FD300914A0410914B0442
:1004300020914C0430914D04601B710B820B930B87
:10044000603177428105910570F081E090E09093F2
:10045000500480934F0481E01F910F91FF90EF9023
:10046000DF90CF9008951092500410924F04F3CF74
:1004700080914E0491E0980F90934E04882349F0A8
:1004800021E030E03093500420934F0480934E04D9
:100490000895F7DE80914E048150F8CFCF93DF931B
:1004A000109271071092700763D36BDFC09129041B
:1004B000D0912A04198218822BDFF89486DF81E01C
:1004C00028813981232B09F080E08093700778948C
:1004D00080917007811107C053DFF89490E080E0AD
:1004E000DF91CF91089581E028813981232B09F490
:1004F00080E0809371079091710781E0911180E015
:100500008093700763DFE4CFCF92DF92EF92FF9288
:100510000F931F93CF93DF936B017A01EC01CE5AB7
:10052000DB4F28813CE0389F8001399F100D11245A
:1005300027FF24C0FB011182108288818F5F88838E
:1005400088819801280F311D87FD3A95C9012091B6
:100550005104F6012817190629F024F088818C30FF
:100560000CF43BC080819181049680349C4908F44E
:1005700073C0F60180819181049670C088819801D2
:10058000280F311D87FD3A95C90120915104281784
:10059000190699F294F28881A801480F511D87FD30
:1005A0005A95FA01EE0FFF1FE40FF51FEA5AFB4FB1
:1005B000808186FFC2CF8881F801E80FF11D87FD99
:1005C000FA95CF01EE0FFF1FE80FF91FEA5AFB4F14
:1005D000808160E08F73D0D3B0CF808191812881FA
:1005E000A801420F511D27FD5A959A01FA01EE0FFD
:1005F000FF1FE20FF31FEA5AFB4F21813281820F66
:10060000931FF7019183808388819801280F311D02
:1006100087FD3A95F901EE0FFF1FE20FF31FEA5A2B
:10062000FB4F808186FF1FC08881080F111D87FD49
:100630001A95F801EE0FFF1FE00FF11FEA5AFB4F6A
:10064000808161E08F73DF91CF911F910F91FF90B7
:10065000EF90DF90CF9090C380E49CE9F701918305
:1006600080838FEF8883DF91CF911F910F91FF904F
:10067000EF90DF90CF9008951F920F920FB60F92D8
:1006800011240BB60F922F933F934F935F936F9369
:100690007F938F939F93AF93BF93EF93FF9348E81C
:1006A00050E064E870E081E090E02EDFFF91EF9190
:1006B000BF91AF919F918F917F916F915F914F917A
:1006C0003F912F910F900BBE0F900FBE0F901F9078
:1006D00018951F920F920FB60F9211240BB60F921E
:1006E0002F933F934F935F936F937F938F939F933A
:1006F000AF93BF93EF93FF9348E950E064E970E054
:1007000082E090E001DFFF91EF91BF91AF919F9167
:100710008F917F916F915F914F913F912F910F90AA
:100720000BBE0F900FBE0F901F9018951F920F9247
:100730000FB60F9211240BB60F922F933F934F9346
:100740005F936F937F938F939F93AF93BF93EF9339
:10075000FF9348EA50E064EA70E083E090E0D4DE82
:10076000FF91EF91BF91AF919F918F917F916F9189
:100770005F914F913F912F910F900BBE0F900FBE45
:100780000F901F9018951F920F920FB60F92112481
:100790000BB60F922F933F934F935F936F937F937B
:1007A0008F939F93AF93BF93EF93FF9348E251E0F2
:1007B00064E271E090E080E0A7DEFF91EF91BF91ED
:1007C000AF919F918F917F916F915F914F913F91E9
:1007D0002F910F900BBE0F900FBE0F901F9018958A
:1007E000FC0190915104903398F481E0890F80933B
:1007F00051049083892F90E0FC01EE0FFF1FE80F5A
:10080000F91FEA5AFB4F88EB9BE09283818308959E
:100810008FEF80830895DF92EF92FF920F931F93E3
:10082000CF93DF93EC01D62E7A0189018881803342
:1008300008F065C061E08D2D63D28881282F30E0FB
:10084000F901EE0FFF1FE20FF31FEA5AFB4F9D2D38
:100850009F736081607C692B608320E232E02E19F7
:100860003F0937FF02C02D5F3F4F359527953595DE
:100870002795298320E639E0201B310B37FF02C082
:100880002D5F3F4F35952795359527952A832CE089
:10089000622F74D6829FB001112430E020E0AB01BA
:1008A000420F531FFA01EE0FFF1FE40FF51FEA5A24
:1008B000FB4F908196FD16C02F5F3F4F2C303105C6
:1008C00071F7813029F51092800082E080938100D9
:1008D0001092850010928400B19A80916F0082601E
:1008E00080936F00E8818E2F90E0FC01EE0FFF1FD8
:1008F000E80FF91FEA5AFB4F80818064808388816A
:10090000DF91CF911F910F91FF90EF90DF900895AD
:10091000823061F4109290008093910010929500C3
:100920001092940088BB80937100DCCF833069F40F
:100930001092A00082E08093A1001092A500109276
:10094000A40089BB80937200CDCF8111CBCF1092D0
:10095000200182E080932101109225011092240150
:100960008ABB80937300BECF20E639E040E252E0BC
:1009700052CFDC01EC91E03390F511968C911197F8
:1009800028E830E0281B310987FD3395220F331FFB
:10099000220F331F6217730784F012968C9128E59B
:1009A00032E0281B310987FD3395220F331F220FB8
:1009B000331F621773070CF49B0122503109220F79
:1009C000331F4FB7F8948E2F90E0FC01EE0FFF1FFE
:1009D000E80FF91FEA5AFB4F328321834FBF089576
:1009E000AF92BF92CF92DF92EF92FF920F931F933D
:1009F000CF93DF93EC01603282E078070CF03DC0CA
:100A0000653B710514F064EB70E0898148E8A42E21
:100A1000B12CA81AB10887FDB394AA0CBB1CAA0C70
:100A2000BB1C0B2C000CCC08DD0877FF02C070E06B
:100A300060E0072E000C880B990B2A8108E512E074
:100A4000021B110927FD1395000F111F000F111F25
:100A5000012E000C220B330B3F932F931F930F9308
:100A600014EBE12EF12C00E010E020E030E0A901D1
:100A700037D50F900F900F900F90CE01DF91CF914F
:100A80001F910F91FF90EF90DF90CF90BF90AF90AC
:100A900070CF1F920F920FB60F9211242F933F9396
:100AA0008F939F93AF93BF938091E7049091E80455
:100AB000A091E904B091EA043091E60423E0230F09
:100AC0002D3758F50196A11DB11D2093E6048093A2
:100AD000E7049093E804A093E904B093EA048091BA
:100AE000EB049091EC04A091ED04B091EE0401961A
:100AF000A11DB11D8093EB049093EC04A093ED0431
:100B0000B093EE04BF91AF919F918F913F912F9140
:100B10000F900FBE0F901F90189526E8230F029696
:100B2000A11DB11DD2CF3FB7F8948091EB049091F5
:100B3000EC04A091ED04B091EE0426B5A89B05C08D
:100B40002F3F19F00196A11DB11D3FBFBA2FA92F4C
:100B5000982F8827BC01CD01620F711D811D911D49
:100B600042E0660F771F881F991F4A95D1F70895B5
:100B7000789484B5826084BD84B5816084BD85B578
:100B8000826085BD85B5816085BDEEE6F0E080813F
:100B900081608083E1E8F0E0108280818260808360
:100BA000808181608083E0E8F0E0808181608083E3
:100BB000E1EBF0E0808184608083E0EBF0E0808115
:100BC00081608083E1E9F0E08081826080838081C0
:100BD00081608083E0E9F0E0808181608083E1EAE8
:100BE000F0E0808182608083808181608083E0EAA0
:100BF000F0E0808181608083E1E2F1E080818260C9
:100C00008083808181608083E0E2F1E08081816087
:100C10008083EAE7F0E08081846080838081826065
:100C2000808380818160808380818068808310924E
:100C3000C10008958150823108F059C0E82FF0E0DA
:100C40008827EB5DF94F8F4FE3C445064906370609
:100C50003D06410677064C06520656065C066006BF
:100C600064066A066E067706720678067C06809130
:100C700080008F77809380000895809180008F7D21
:100C8000F9CF80918000877FF5CF84B58F7784BDC1
:100C9000089584B58F7DFBCF8091B0008F778093CE
:100CA000B00008958091B0008F7DF9CF80919000C1
:100CB0008F77809390000895809190008F7DF9CF79
:100CC00080919000877FF5CF8091A0008F778093EF
:100CD000A00008958091A0008F7DF9CF8091A000A1
:100CE000877FF5CF809120018F7780932001089531
:100CF000809120018F7DF9CF80912001877FF5CFF2
:100D0000CF93DF9390E0FC01E65DFE4F2491805984
:100D10009E4FFC0184918823C9F090E0880F991FB1
:100D2000FC01E053FE4FA591B491FC01EA54FE4F43
:100D3000C591D49161110DC09FB7F8948C91209505
:100D400082238C938881282328839FBFDF91CF91B2
:100D50000895623051F49FB7F8943C91822F8095AA
:100D600083238C93E8812E2BEFCF8FB7F894EC91EF
:100D70002E2B2C938FBFEACF1F93CF93DF93282F77
:100D800030E0F901EC51FF4F8491F901E65DFE4F2F
:100D9000D491F901E059FE4FC491CC23A1F0162F54
:100DA000811148DFEC2FF0E0EE0FFF1FEA54FE4FF9
:100DB000A591B4918FB7F894EC91111108C0D0951A
:100DC000DE23DC938FBFDF91CF911F910895DE2B3F
:100DD000F8CFFC01918D228D892F90E0805C9F4F90
:100DE000821B91098F7399270895FC01918D828D43
:100DF000981731F0828DE80FF11D858D90E00895F0
:100E00008FEF9FEF0895FC01918D828D981761F00F
:100E1000A28DAE0FBF2FB11D5D968C91928D9F5FFD
:100E20009F73928F90E008958FEF9FEF0895FC01DC
:100E3000538D448D252F30E0842F90E0821B930B3F
:100E4000541710F0CF96089501970895FC01A48DD2
:100E5000A80FB92FB11DA35ABF4F2C91848D90E0DC
:100E600001968F739927848FA689B7892C93A089BF
:100E7000B1898C91837080648C93938D848D981349
:100E800006C00288F389E02D80818F7D80830895DC
:100E9000CF93DF93EC01888D8823B1F0AA89BB89B9
:100EA000E889F9898C9185FD03C0808186FD0CC09D
:100EB0000FB607FCF7CF8C9185FFF2CF808185FFBD
:100EC000EDCFCE01C3DFEACFDF91CF910895EF924E
:100ED000FF920F931F93CF93DF93EC0181E0888FF4
:100EE0009B8D8C8D98131AC0E889F989808185FFC4
:100EF00015C09FB7F894EE89FF896083E889F98966
:100F000080818370806480839FBF81E090E0DF9167
:100F1000CF911F910F91FF90EF900895F62E0B8DBA
:100F200010E00F5F1F4F0F731127E02E8C8D8E1175
:100F30000BC00FB607FCFACFE889F989808185FFDD
:100F4000F5CFCE0183DFF2CFEB8DEC0FFD2FF11D3E
:100F5000E35AFF4FF0829FB7F8940B8FEA89FB8921
:100F600080818062D0CFCF92DF92EF92FF921F9369
:100F7000CF93DF93EC016A017B01122FE889F98995
:100F800082E08083C11481EED806E104F10499F077
:100F900060E079E08DE390E0A7019601FBD221505B
:100FA00031094109510956954795379527952115DE
:100FB00080E1380790F0E889F989108260E874E8E8
:100FC0008EE190E0A7019601E5D221503109410957
:100FD00051095695479537952795EC85FD853083C2
:100FE000EE85FF852083188EEC89FD891083EA89C0
:100FF000FB89808180618083EA89FB8980818860A8
:101000008083EA89FB89808180688083EA89FB8903
:1010100080818F7D8083DF91CF911F91FF90EF9032
:10102000DF90CF9008951F920F920FB60F92112468
:101030000BB60F922F938F939F93EF93FF93E091B3
:10104000FF04F09100058081E0910505F09106050F
:1010500082FD1DC09081809108058F5F8F73209164
:101060000905821741F0E0910805F0E0E151FB4FDE
:10107000958F80930805FF91EF919F918F912F910C
:101080000F900BBE0F900FBE0F901F901895808190
:10109000F2CF1F920F920FB60F9211240BB60F9240
:1010A0002F933F934F935F936F937F938F939F9370
:1010B000AF93BF93EF93FF938FEE94E0C7DEFF9162
:1010C000EF91BF91AF919F918F917F916F915F91C0
:1010D0004F913F912F910F900BBE0F900FBE0F902D
:1010E0001F901895EFEEF4E01382128288EE93E0E1
:1010F000A0E0B0E084839583A683B7838FE294E079
:101100009183808385EC90E09587848784EC90E0E0
:101110009787868780EC90E0918B808B81EC90E0C4
:10112000938B828B82EC90E0958B848B86EC90E0A5
:10113000978B868B118E128E138E148E08951F92AC
:101140000F920FB60F9211240BB60F922F938F931D
:101150009F93EF93FF93E0919C05F0919D05808113
:10116000E091A205F091A30582FD1DC090818091C0
:10117000A5058F5F8F732091A605821741F0E0913E
:10118000A505F0E0E457FA4F958F8093A505FF91F0
:10119000EF919F918F912F910F900BBE0F900FBEEB
:1011A0000F901F9018958081F2CF1F920F920FB66B
:1011B0000F9211240BB60F922F933F934F935F938F
:1011C0006F937F938F939F93AF93BF93EF93FF930F
:1011D0008CE895E03BDEFF91EF91BF91AF919F913D
:1011E0008F917F916F915F914F913F912F910F90D0
:1011F0000BBE0F900FBE0F901F901895ECE8F5E016
:101200001382128288EE93E0A0E0B0E0848395839D
:10121000A683B7838FE294E0918380838DEC90E086
:10122000958784878CEC90E09787868788EC90E0A0
:10123000918B808B89EC90E0938B828B8AEC90E091
:10124000958B848B8EEC90E0978B868B118E128E13
:10125000138E148E08951F920F920FB60F921124C1
:101260000BB60F922F938F939F93EF93FF93E09181
:101270003906F0913A068081E0913F06F0914006F0
:1012800082FD1DC09081809142068F5F8F732091F7
:101290004306821741F0E0914206F0E0E75DF94F26
:1012A000958F80934206FF91EF919F918F912F919F
:1012B0000F900BBE0F900FBE0F901F90189580815E
:1012C000F2CF1F920F920FB60F9211240BB60F920E
:1012D0002F933F934F935F936F937F938F939F933E
:1012E000AF93BF93EF93FF9389E296E0AFDDFF9159
:1012F000EF91BF91AF919F918F917F916F915F918E
:101300004F913F912F910F900BBE0F900FBE0F90FA
:101310001F901895E9E2F6E01382128288EE93E0BE
:10132000A0E0B0E084839583A683B7838FE294E046
:101330009183808385ED90E09587848784ED90E0AC
:101340009787868780ED90E0918B808B81ED90E090
:10135000938B828B82ED90E0958B848B86ED90E071
:10136000978B868B118E128E138E148E08951F927A
:101370000F920FB60F9211240BB60F922F938F93EB
:101380009F93EF93FF93E091D606F091D70680816B
:10139000E091DC06F091DD0682FD1DC09081809118
:1013A000DF068F5F8F732091E006821741F0E09196
:1013B000DF06F0E0EA53F94F958F8093DF06FF9147
:1013C000EF919F918F912F910F900BBE0F900FBEB9
:1013D0000F901F9018958081F2CF1F920F920FB639
:1013E0000F9211240BB60F922F933F934F935F935D
:1013F0006F937F938F939F93AF93BF93EF93FF93DD
:1014000086EC96E023DDFF91EF91BF91AF919F9124
:101410008F917F916F915F914F913F912F910F909D
:101420000BBE0F900FBE0F901F901895E6ECF6E0E4
:101430001382128288EE93E0A0E0B0E0848395836B
:10144000A683B7838FE294E09183808385E391E064
:101450009587848784E391E09787868780E391E08E
:10146000918B808B81E391E0938B828B82E391E07F
:10147000958B848B86E391E0978B868B118E128EF1
:10148000138E148E0895AF92BF92CF92DF92EF9297
:10149000FF920F931F93CF93DF936C017B018B011E
:1014A000040F151FEB015E01AE18BF08C017D1076E
:1014B00059F06991D601ED91FC910190F081E02DF8
:1014C000C6011995892B79F7C501DF91CF911F913D
:1014D0000F91FF90EF90DF90CF90BF90AF90089565
:1014E0004F925F926F927F92AF92BF92CF92DF92B4
:1014F000EF92FF920F931F93CF93DF93CDB7DEB799
:1015000029013A019B01AC01241935094609570903
:101510008A899B89AC89BD89BC01CD016A197B0987
:101520008C099D091CD0A801970124193509460989
:10153000570952D0CA01B9016A0D7B1D8C1D9D1D32
:10154000DF91CF911F910F91FF90EF90DF90CF909F
:10155000BF90AF907F906F905F904F900895DB01A8
:101560008F939F935DD0BF91AF91A29F800D911DEE
:10157000A39F900DB29F900D11240895991B79E0BF
:1015800004C0991F961708F0961B881F7A95C9F713
:1015900080950895A1E21A2EAA1BBB1BFD010DC068
:1015A000AA1FBB1FEE1FFF1FA217B307E407F50713
:1015B00020F0A21BB30BE40BF50B661F771F881FEF
:1015C000991F1A9469F760957095809590959B0185
:1015D000AC01BD01CF010895052E97FB16F40094D0
:1015E0000FD057FD05D0D6DF07FC02D046F408C067
:1015F00050954095309521953F4F4F4F5F4F08953F
:1016000090958095709561957F4F8F4F9F4F08956E
:10161000EE0FFF1F881F8BBF0790F691E02D1994E6
:1016200009D0A59F900DB49F900DA49F800D911D92
:1016300011240895A29FB001B39FC001A39F700D14
:10164000811D1124911DB29F700D811D1124911DCA
:061650000895F894FFCF9D
:101656006701000102030405060708090A0B0C0DC1
:101666000E0F101112131415161718191A1B1C1D1C
:101676001E1F202122232425262728292A2B2C2D0C
:101686002E2F303132333435363738393A3B3C3DFC
:101696003E3F404142434445464748494A4B4C4DEC
:1016A6004E4F505152535455565758595A5B5C5DDC
:1016B6005E5F606162636465666768696A6B6C6DCC
:1016C6006E6F707172737475767778797A7B7C7DBC
:1016D6007E7F808182838485868788898A8B8C8DAC
:1016E6008E8F909192939495969798999A9B9C9D9C
:1016F6009E9FA0A1A2A3A4A5A6A7A8A9AAABACAD8C
:10170600AEAFB0B1B2B3B4B3B2B1B0AFAEADACABD5
:10171600AAA9A8A7A6A5A4A3A2A1A09F9E9D9C9B9B
:101726009A999897969594939291908F8E8D8C8B8B
:101736008A898887868584838281807F7E7D7C7B7B
:101746007A797877767574737271706F6E6D6C6B6B
:101756006A696867666564636261605F5E5D5C5B5B
:101766005A595857565554535251504F4E4D4C4B4B
:101776004A494847464544434241403F3E3D3C3B3B
:101786003A393837363534333231302F2E2D2C2B2B
:101796002A292827262524232221201F1E1D1C1B1B
:1017A6001A191817161514131211100F0E0D0C0B0B
:1017B6000A090807060504030201000102030405DD
:1017C600060708090A0B0C0D0E0F1011121314153B
:1017D600161718191A1B1C1D1E1F2021222324252B
:1017E600262728292A2B2C2D2E2F3031323334351B
:1017F600363738393A3B3C3D3E3F4041424344450B
:10180600464748494A4B4C4D4E4F505152535455FA
:10181600565758595A5A5958575655545352515063
:101826004F4E4D4C4B4A494847464544434241403A
:101836003F3E3D3C3B3A393837363534333231302A
:101846002F2E2D2C2B2A292827262524232221201A
:101856001F1E1D1C1B1A191817161514131211100A
:101866000F0E0D0C0B0A090807060504030201B446
:1018760000000000010000000144040000000067B1
:0E18860007430A17074807E9060307F506009F
:00000001FF
