:10000000F9C0000027C1000025C1000023C1000085
:1000100021C100001FC100001DC100001BC1000064
:1000200019C1000017C1000015C1000013C1000074
:1000300011C100000FC100000DC100000BC1000084
:1000400009C10000CEC4000005C1000003C10000CA
:1000500001C10000FFC00000FDC000000C94A40816
:10006000F9C000000C94CE100C94FE10F3C00000F8
:10007000F1C00000EFC00000EDC00000EBC00000C8
:10008000E4C40000E7C00000E5C00000E3C00000D9
:100090000C9475110C94A511DDC00000DBC00000AC
:1000A000D9C00000D7C0000004C50000D3C00000C4
:1000B000D1C00000CFC00000CDC000002EC50000A0
:1000C000C9C00000C7C00000C5C000000C941C12CD
:1000D0000C944C12BFC000000C94C3120C94F31289
:1000E000B9C0000000002100240027002A002D00D4
:1000F0003000330001010000040107010A01000083
:100100002200250028002B002E00310034000201BF
:100110000000050108010B01050505050705080894
:100120000808020202020A0A080804040404010181
:100130000101010101010303030303030303040796
:1001400007070C0C0C0C0C0C0C0C0202020206062D
:100150000606060606060B0B0B0B0B0B0B0B010220
:1001600010202008081020401020408002010201C9
:100170000804020101020408102040808040201081
:1001800008040201800402018040201008040201DA
:100190000804020101020408102040800102040842
:1001A0001020408000000A0B02090C0D0E08070306
:1001B000040100000000000000000000000000003A
:1001C000000000000000000000000000000000002F
:1001D00012111000000000000000000000000000EC
:1001E00000000000000000000000960169111012DC
:1001F000B712601311241FBECFEFD1E2DEBFCDBF17
:1002000000E00CBF13E0A0E0B2E0EAE4F9E200E0B5
:100210000BBF02C007900D92A23AB107D9F726E0B2
:10022000A2EAB3E001C01D92A83CB207E1F710E0DA
:10023000CAEFD0E000E006C021970109802FFE013F
:100240000E947E14C53FD10780E00807A9F702D2BB
:100250000C94A314D5CECF93DF931F921F92CDB7EA
:10026000DEB789836A838981282F30E0C901880F2E
:10027000991F820F931F8E559C4F2A81222F30E0A9
:10028000B90170D500000F900F90DF91CF910895C4
:10029000CF93DF931F921F92CDB7DEB789836A8316
:1002A0008981282F30E0C901880F991F820F931F81
:1002B0008E559C4F2A81222F30E0B901FFD50000D6
:1002C0000F900F90DF91CF910895EF92FF920F93CF
:1002D0001F93CF93DF9300D01F92CDB7DEB79A83E1
:1002E00089837C836B8389819A81019799F48B81BF
:1002F0009C81019679F482EA93E000E010E07C01B1
:10030000112344F0C701FAD483E0E80EF11C015038
:100310001109F6CF00000F900F900F900F90DF9112
:10032000CF911F910F91FF90EF900895CF93DF939E
:10033000CDB7DEB76FEF7FEF81E090E0C6DFDF91F2
:10034000CF910895CF93DF931F92CDB7DEB7809101
:10035000C4069091C5068E5F9D4FFC018081853B50
:1003600018F084EB898309C08091C4069091C5067A
:100370008E5F9D4FFC0180818983698180E088DFE9
:100380002091C4063091C50680916E0390916F0351
:10039000820F931F9093C5068093C4062091C406D4
:1003A0003091C50680910002909101028217930757
:1003B00040F480916A0390916B039093C5068093FB
:1003C000C40600000F90DF91CF910895CF93DF9383
:1003D000CDB7DEB780916C0390916D039093C50605
:1003E0008093C40664E080E036DF0000DF91CF91A7
:1003F0000895CF93DF93CDB7DEB70000DF91CF91A3
:100400000895CF93DF93CDB7DEB740E855E260E0C3
:1004100070E080E090E026D00000DF91CF91089559
:10042000CF93DF9300D000D0CDB7DEB79A83898316
:100430004B835C836D837E838B819C81AD81BE8188
:10044000E981FA8126E0AC01BD01CF010E94000DD7
:10045000000026960FB6F894DEBF0FBECDBFDF9129
:10046000CF910895CF93DF9300D000D0CDB7DEB702
:100470009A8389834B835C836D837E8389819A8190
:1004800081309105B1F0823091051CF4892B39F04F
:100490002EC082309105B9F00397F9F028C08B8106
:1004A0009C81AD81BE81AC01BD0180E594E0B8DFE7
:1004B0001EC08B819C81AD81BE81AC01BD018DEEE2
:1004C00094E0AEDF14C08B819C81AD81BE81AC0114
:1004D000BD018AE895E0A4DF0AC08B819C81AD81D3
:1004E000BE81AC01BD0187E296E09ADF000000000A
:1004F00026960FB6F894DEBF0FBECDBFDF91CF9129
:100500000895CF93DF93CDB7DEB70000DF91CF9191
:100510000895EF92FF920F931F93CF93DF9300D034
:100520001F921F92CDB7DEB719827FD6DC01CB01B7
:100530008093AB039093AC03A093AD03B093AE0351
:100540002091AB033091AC034091AD035091AE03C9
:100550008091A7039091A803A091A903B091AA0349
:1005600079018A01E81AF90A0A0B1B0BD801C701A5
:1005700080319742A105B10508F43CC08091AB03DE
:100580009091AC03A091AD03B091AE038093A7030B
:100590009093A803A093A903B093AA033AD045D699
:1005A000DC01CB018A839B83AC83BD838091A7034D
:1005B0009091A803A091A903B091AA032A813B813D
:1005C0004C815D8179018A01E81AF90A0A0B1B0B3B
:1005D000D801C70180319742A105B10538F081E00B
:1005E00090E09093B0038093AF0304C01092B003E7
:1005F0001092AF0381E0898389810F900F900F9053
:100600000F900F90DF91CF911F910F91FF90EF907E
:100610000895CF93DF93CDB7DEB78091B10391E01A
:10062000980F9093B103882361F081E090E090935C
:10063000B0038093AF038091B10381508093B103E5
:1006400006C080DE8091B10381508093B103DF91B9
:10065000CF910895CF93DF9300D000D01F921F92C7
:10066000CDB7DEB78AE097EDA3E2BCE389839A8336
:10067000AB83BC831D821E821F8218861092C70620
:100680001092C60630D6BDDE809170039091710342
:10069000FC01118210829ADEF89433DF809170039E
:1006A00090917103FC018081918121E0892B09F0F7
:1006B00020E0822F8093C606789417C08091700343
:1006C00090917103FC018081918121E0892B09F4D3
:1006D00020E0822F8093C7069091C70681E099237E
:1006E00009F080E08093C60614DF8091C606882357
:1006F00029F77FDEF89480E090E028960FB6F89412
:10070000DEBF0FBECDBFDF91CF910895CF93DF93B2
:1007100000D000D0CDB7DEB79A8389837C836B830A
:100720005E834D8389819A818E5B9B4FFC01808122
:10073000881F8827881F882331F08B819C81FC01CA
:10074000118210826BC029813A81C901880F991FDB
:10075000820F931F880F991F880F991F9C01898111
:100760009A818E5B9B4FFC018081082E000C990BB7
:10077000280F391F80914604882F90E028173907E9
:100780003CF529813A81C901880F991F820F931F77
:10079000880F991F880F991F9C0189819A818E5B10
:1007A0009B4FFC018081082E000C990B280F391FEC
:1007B000C901880F991F820F931F8E549C4FFC0113
:1007C000808186FB882780F9813011F481E001C0A7
:1007D00080E0882319F129813A81C901880F991F86
:1007E000820F931F880F991F880F991F9C01898181
:1007F0009A818E5B9B4FFC018081082E000C990B27
:10080000280F391FC901880F991F820F931F8E541B
:100810009C4FFC0180818F7360E0E4D789819A81CD
:100820009C012E5B3B4FF90120812F5F8E5B9B4F1C
:10083000FC01208329813A81C901880F991F820F09
:10084000931F880F991F880F991F9C0189819A8196
:100850008E5B9B4FFC018081082E000C990B280FAA
:10086000391F80914604882F90E02817390754F4E7
:1008700089819A818E5B9B4FFC0180818C3014F4BE
:1008800081E001C080E0882309F478C08B819C81DD
:10089000FC014081518129813A81C901880F991F4A
:1008A000820F931F880F991F880F991F9C018981C0
:1008B0009A818E5B9B4FFC018081082E000C990B66
:1008C000280F391FC901880F991F820F931F8D545C
:1008D0009C4FFC01808191819A01280F391F8D81E5
:1008E0009E81FC013183208329813A81C901880FCF
:1008F000991F820F931F880F991F880F991F9C01C2
:1009000089819A818E5B9B4FFC018081082E000CAF
:10091000990B280F391FC901880F991F820F931F48
:100920008E549C4FFC01808186FB882780F98823A8
:1009300009F44DC029813A81C901880F991F820F9E
:10094000931F880F991F880F991F9C0189819A8195
:100950008E5B9B4FFC018081082E000C990B280FA9
:10096000391FC901880F991F820F931F8E549C4F06
:10097000FC0180818F7361E035D729C08B819C8118
:10098000FC0180819181049621E080349C4908F02B
:1009900020E0222341F08D819E8120E43CE9FC018E
:1009A000318320830DC08B819C81FC0180819181EA
:1009B0009C012C5F3F4F8D819E81FC013183208300
:1009C00089819A818E5B9B4F2FEFFC012083000071
:1009D00026960FB6F894DEBF0FBECDBFDF91CF9144
:1009E00008951F920F920FB60F9211240BB60F921B
:1009F0002F933F934F935F936F937F938F939F9327
:100A0000AF93BF93EF93FF93CF93DF93CDB7DEB751
:100A100048E850E064E870E081E090E077DE0000B4
:100A2000DF91CF91FF91EF91BF91AF919F918F9106
:100A30007F916F915F914F913F912F910F900BBEDE
:100A40000F900FBE0F901F9018951F920F920FB628
:100A50000F9211240BB60F922F933F934F935F93F6
:100A60006F937F938F939F93AF93BF93EF93FF9376
:100A7000CF93DF93CDB7DEB748E950E064E970E08B
:100A800082E090E043DE0000DF91CF91FF91EF9193
:100A9000BF91AF919F918F917F916F915F914F9196
:100AA0003F912F910F900BBE0F900FBE0F901F9094
:100AB00018951F920F920FB60F9211240BB60F923A
:100AC0002F933F934F935F936F937F938F939F9356
:100AD000AF93BF93EF93FF93CF93DF93CDB7DEB781
:100AE00048EA50E064EA70E083E090E00FDE000046
:100AF000DF91CF91FF91EF91BF91AF919F918F9136
:100B00007F916F915F914F913F912F910F900BBE0D
:100B10000F900FBE0F901F9018951F920F920FB657
:100B20000F9211240BB60F922F933F934F935F9325
:100B30006F937F938F939F93AF93BF93EF93FF93A5
:100B4000CF93DF93CDB7DEB748E251E064E271E0C6
:100B500080E090E0DBDD0000DF91CF91FF91EF912D
:100B6000BF91AF919F918F917F916F915F914F91C5
:100B70003F912F910F900BBE0F900FBE0F901F90C3
:100B80001895CF93DF931F921F92CDB7DEB79A834C
:100B9000898389819A81019701F580E890E0FC01C1
:100BA000108281E890E022E0FC01208384E890E05C
:100BB000FC011182108286E390E0FC01208186E333
:100BC00090E02260FC0120838FE690E0FC01208110
:100BD0008FE690E02260FC01208389819A81029750
:100BE000C1F480E990E0FC01108281E990E022E00C
:100BF000FC01208384E990E0FC011182108288E3EB
:100C000090E022E0FC01208381E790E022E0FC01FB
:100C1000208389819A810397C1F480EA90E0FC01E6
:100C2000108281EA90E022E0FC01208384EA90E0D7
:100C3000FC011182108289E390E022E0FC01208314
:100C400082E790E022E0FC01208389819A81892B50
:100C5000C1F480E291E0FC01108281E291E022E0A7
:100C6000FC01208384E291E0FC01118210828AE37E
:100C700090E022E0FC01208383E790E022E0FC0189
:100C8000208300000F900F90DF91CF910895CF93B4
:100C9000DF9300D0CDB7DEB79B838A831982898129
:100CA0008C3028F52A813B81C901880F991F820F5A
:100CB000931F880F991F880F991F9C018981882F86
:100CC00090E0280F391FC901880F991F820F931FC9
:100CD0008E549C4FFC01808186FB882780F98130EF
:100CE00011F481E005C089818F5F8983D8CF80E0CE
:100CF0000F900F900F90DF91CF910895CF93DF93D6
:100D00001F921F92CDB7DEB79A83898380914604E4
:100D10008033E8F42091460481E0820F80934604FA
:100D200089819A81FC01208389819A81FC018081DB
:100D3000282F30E0C901880F991F820F931F8D540F
:100D40009C4F28EB3BE0FC013183208305C0898167
:100D50009A812FEFFC01208300000F900F90DF910C
:100D6000CF910895CF93DF9300D01F92CDB7DEB718
:100D70009A8389837C836B836B817C8189819A814F
:100D800020E639E040E252E007D00F900F900F903C
:100D90000F90DF91CF910895CF93DF9300D000D0D3
:100DA00000D01F92CDB7DEB79C838B837E836D838B
:100DB00058874F833A8729878B819C81FC018081EA
:100DC000803308F06EC08D8161E06DD38B819C8192
:100DD000FC018081282F30E04D814F73C901880FBD
:100DE000991F820F931F8E549C4F242F2F73FC0149
:100DF0003081307C232BFC01208320E232E08F8184
:100E00009885A901481B590BCA0199230CF4039634
:100E10009595879595958795282F8B819C81FC01C9
:100E2000218320E639E089859A85A901481B590B61
:100E3000CA0199230CF40396959587959595879506
:100E4000282F8B819C81FC0122838B819C81FC015A
:100E500090818BEA989F812D1124869586958695A1
:100E6000882F90E09A83898389819A8110DF982F57
:100E700081E08927882319F089819A8182DE8B811C
:100E80009C81FC018081282F30E0C901880F991FC7
:100E9000820F931F8E549C4FFC0120812064FC0123
:100EA00020838B819C81FC0180812A960FB6F89467
:100EB000DEBF0FBECDBFDF91CF9108956F927F92BD
:100EC0008F929F92AF92BF92CF92DF92EF92FF925A
:100ED0000F931F93CF93DF9300D01F92CDB7DEB750
:100EE0009A8389837C836B838B819C81803292403F
:100EF0000CF05CC08B819C81992314F41C821B82B2
:100F00008B819C81853B910524F084EB90E09C8350
:100F10008B8389819A81FC018281082E000C990BB8
:100F200028E532E0A901481B590BCA01880F991F17
:100F3000880F991F092E000CAA0BBB0B29813A813F
:100F4000F9012181022E000C330B48E850E0BA0170
:100F5000621B730B9B01220F331F220F331F032EC3
:100F6000000C440B550B6B817C813B01770F88088B
:100F700099086B2F6F936A2F6F93692F6F938F93DD
:100F800059016A0114EBE12EF12C00E010E020E0A1
:100F900030E0A901C401B3010E94B7130F900F9074
:100FA0000F900F90DC01CB019C838B832B813C81C4
:100FB00089819A81B90114D000000F900F900F9091
:100FC0000F90DF91CF911F910F91FF90EF90DF90E5
:100FD000CF90BF90AF909F908F907F906F9008952B
:100FE000CF93DF9300D000D0CDB7DEB79C838B8347
:100FF0007E836D838B819C81FC01808189838981C3
:10100000803308F097C08B819C81FC018181082E80
:10101000000C990B28E830E0A901481B590BCA01C4
:10102000880F991F880F991F2D813E812817390736
:10103000A4F48B819C81FC018181082E000C990B0A
:1010400028E830E0A901481B590BCA01880F991FF5
:10105000880F991F9E838D8329C08B819C81FC0101
:101060008281082E000C990B28E532E0A901481B6B
:10107000590BCA01880F991F880F991F2D813E8136
:10108000821793079CF48B819C81FC018281082E3E
:10109000000C990B28E532E0A901481B590BCA0145
:1010A000880F991F880F991F9E838D838D819E8144
:1010B00002979E838D838D819E81092E000CAA0B41
:1010C000BB0B880F991FAA1FBB1F880F991FAA1F50
:1010D000BB1F880F991FAA1FBB1F880F991FAA1F2C
:1010E000BB1FBB231CF40796A11DB11D689412F809
:1010F000B595A795979587951694D1F79E838D837F
:101100008FE590E0FC0180818A83F8948981282F03
:1011100030E04D815E81C901880F991F820F931FB6
:101120008D549C4FFC01518340838FE590E02A81D0
:10113000FC012083000026960FB6F894DEBF0FBE98
:10114000CDBFDF91CF9108951F920F920FB60F92EE
:1011500011248F939F93AF93BF93CF93DF93CDB71A
:10116000DEB72597DEBFCDBF80914B0490914C0434
:10117000A0914D04B0914E0489839A83AB83BC83C4
:1011800080914F048D8389819A81AB81BC810196C6
:10119000A11DB11D89839A83AB83BC838D818D5F33
:1011A0008D838D818D3770F08D818D578D838981F1
:1011B0009A81AB81BC810196A11DB11D89839A835F
:1011C000AB83BC838D8180934F0489819A81AB81ED
:1011D000BC8180934B0490934C04A0934D04B09336
:1011E0004E048091470490914804A0914904B09125
:1011F0004A040196A11DB11D8093470490934804B1
:10120000A0934904B0934A0400000F900F900F90F0
:101210000F900F90DF91CF91BF91AF919F918F91E0
:101220000F900FBE0F901F901895CF93DF9300D0B3
:1012300000D0CDB7DEB78FE590E0FC0180818D83D3
:10124000F8948091470490914804A0914904B0918A
:101250004A0489839A83AB83BC8386E490E0FC01D3
:1012600080818E8385E390E0FC018081882F90E06F
:1012700081709927892B71F08E818F3F59F0898178
:101280009A81AB81BC810196A11DB11D89839A838E
:10129000AB83BC838FE590E02D81FC0120838981A5
:1012A0009A81AB81BC812227382F492F5A2F8E81FA
:1012B000882F90E0A0E0B0E0820F931FA41FB51F1D
:1012C000880F991FAA1FBB1F880F991FAA1FBB1F3A
:1012D000BC01CD0126960FB6F894DEBF0FBECDBF80
:1012E000DF91CF910895CF93DF93CDB7DEB7789498
:1012F00084E490E0FC01208184E490E02260FC0121
:10130000208384E490E0FC01208184E490E021606B
:10131000FC01208385E490E0FC01208185E490E0DD
:101320002260FC01208385E490E0FC01208185E4BB
:1013300090E02160FC0120838EE690E0FC0120819A
:101340008EE690E02160FC01208381E890E0FC01C2
:10135000108281E890E0FC01208181E890E0226029
:10136000FC01208381E890E0FC01208181E890E08D
:101370002160FC01208380E890E0FC01208180E86E
:1013800090E02160FC01208381EB90E0FC01208152
:1013900081EB90E02460FC01208380EB90E0FC0175
:1013A000208180EB90E02160FC01208381E990E0C6
:1013B000FC01208181E990E02260FC01208381E929
:1013C00090E0FC01208181E990E02160FC01208314
:1013D00080E990E0FC01208180E990E02160FC013F
:1013E000208381EA90E0FC01208181EA90E0226084
:1013F000FC01208381EA90E0FC01208181EA90E0F9
:101400002160FC01208380EA90E0FC01208180EAD9
:1014100090E02160FC01208381E291E0FC012081C9
:1014200081E291E02260FC01208381E291E0FC01F5
:10143000208181E291E02160FC01208380E291E043
:10144000FC01208180E291E02160FC0120838AE799
:1014500090E0FC0120818AE790E02460FC01208379
:101460008AE790E0FC0120818AE790E02260FC019D
:1014700020838AE790E0FC0120818AE790E02160E8
:10148000FC0120838AE790E0FC0120818AE790E05C
:101490002068FC01208381EC90E0FC0110820000B8
:1014A000DF91CF910895CF93DF93CDB7DEB76997E2
:1014B0000FB6F894DEBF0FBECDBF888F698F888DC1
:1014C000882F90E0825A9E4F9A83898389819A81DE
:1014D000FC0184918B838B818C83888D882F90E095
:1014E000885E9E4F9E838D838D819E81FC018491B9
:1014F0008F838F8188878885882309F495C08885A4
:10150000882F90E0880F991F8C519F4F9A87898769
:1015100089859A85FC0125913491CF013C872B87E1
:101520009A8789878B859C859E878D878885882F5C
:1015300090E0880F991F82509F4F988B8F878F85DF
:101540009889FC0125913491CF013A8B298B988B96
:101550008F8789899A899C8B8B8B898D882331F51C
:101560008FE590E0FC0180818F8BF8948D859E85BE
:10157000FC018081982F8C8180958923282F8D856F
:101580009E85FC0120838B899C89FC018081982F9A
:101590008C8180958923282F8B899C89FC0120834D
:1015A0008FE590E02F89FC0120833FC0898D823038
:1015B00021F58FE590E0FC0180818E8BF8948D857C
:1015C0009E85FC018081982F8C8180958923282F0E
:1015D0008D859E85FC0120838B899C89FC019081EF
:1015E0008C81292F282B8B899C89FC0120838FE5F6
:1015F00090E02E89FC01208318C08FE590E0FC016B
:1016000080818D8BF8948D859E85FC0190818C81E5
:10161000292F282B8D859E85FC0120838FE590E066
:101620002D89FC01208301C0000069960FB6F89453
:10163000DEBF0FBECDBFDF91CF910895CF93DF9373
:101640001F92CDB7DEB789838981882F90E0092E5C
:10165000000CAA0BBB0B0197A109B10982319105BE
:10166000A105B10508F0B9C0FC018827E55CF44F7D
:101670008F4F0C947E146B0B750B4D0B570B610B3E
:10168000ED0B7F0B890B930B9D0BA70BB10BBB0BCA
:10169000C50BED0BCF0BD90BE30B80E890E0FC0101
:1016A000208180E890E02F77FC01208396C080E8BD
:1016B00090E0FC01208180E890E02F7DFC012083F8
:1016C0008CC080E890E0FC01208180E890E0277FDA
:1016D000FC01208382C084E490E0FC01208184E44A
:1016E00090E02F77FC01208378C084E490E0FC0137
:1016F000208184E490E02F7DFC0120836EC080EB8C
:1017000090E0FC01208180EB90E02F77FC012083AA
:1017100064C080EB90E0FC01208180EB90E02F7DA5
:10172000FC0120835AC080E990E0FC01208180E91F
:1017300090E02F77FC01208350C080E990E0FC010D
:10174000208180E990E02F7DFC01208346C080E964
:1017500090E0FC01208180E990E0277FFC0120835C
:101760003CC080EA90E0FC01208180EA90E02F7785
:10177000FC01208332C080EA90E0FC01208180EAF5
:1017800090E02F7DFC01208328C080EA90E0FC01DE
:10179000208180EA90E0277FFC0120831EC080E248
:1017A00091E0FC01208180E291E02F77FC01208311
:1017B00014C080E291E0FC01208180E291E02F7D65
:1017C000FC0120830AC080E291E0FC01208180E2DC
:1017D00091E0277FFC012083000000000F90DF9143
:1017E000CF910895CF93DF93CDB7DEB765970FB64E
:1017F000F894DEBF0FBECDBF8C8B6D8B8C89882F8C
:1018000090E08C559E4F9A83898389819A81FC014F
:1018100084918B838B818C838C89882F90E0825A72
:101820009E4F9E838D838D819E81FC0184918F8349
:101830008F8188878C89882F90E0885E9E4F9A8759
:10184000898789859A85FC0184918B878B858C8714
:101850008C85882309F444C08C81882311F08C8105
:10186000EDDE8C85882F90E0880F991F82509F4F66
:101870009E878D878D859E85FC0125913491CF01B2
:10188000388B2F879E878D878F8598899A8B898B38
:101890008FE590E0FC0180818B8BF8948D89882303
:1018A00071F489899A89FC018081982F88858095B7
:1018B0008923282F89899A89FC0120830BC0898973
:1018C0009A89FC0190818885292F282B89899A89FA
:1018D000FC0120838FE590E02B89FC01208301C06F
:1018E000000065960FB6F894DEBF0FBECDBFDF9146
:1018F000CF910895CF93DF93CDB7DEB7F89481E011
:10190000DF91CF910895CF93DF931F921F92CDB7B0
:10191000DEB79A8389838FE590E029813A81F901C6
:101920002081FC01208300000F900F90DF91CF9168
:101930000895CF93DF9300D0CDB7DEB79B838A8322
:101940008A819B81FC01848D882F90E02A813B81D4
:10195000820F931F835A9F4FFC01808189838A8164
:101960009B81FC01848D882F90E001968F73907885
:10197000992324F40197806C9F6F0196282F8A8108
:101980009B81FC01248F8A819B81FC018689978938
:101990002981FC0120838A819B81FC0180899189B6
:1019A000FC0180818370282F20648A819B81FC0147
:1019B00080899189FC0120838A819B81FC01238D90
:1019C0008A819B81FC01948D81E0291709F080E0D8
:1019D000882379F08A819B81FC0182899389FC01AB
:1019E00020818A819B81FC01828993892F7DFC0162
:1019F000208300000F900F900F90DF91CF910895FA
:101A0000CF93DF9300D000D000D0CDB7DEB79C835A
:101A10008B834D835E836F837887298780E099E08D
:101A2000ADE3B0E02D813E814F815885BC01CD01F1
:101A300027D7DA01C9010197A109B109B695A79580
:101A4000979587959A8389838B819C81FC018089F6
:101A5000918922E0FC0120838D819E81AF81B88530
:101A60008115914EA105B10529F089819A818115D1
:101A70009041E8F08B819C81FC0180899189FC0177
:101A8000108280E894E8AEE1B0E02D813E814F8184
:101A90005885BC01CD01F4D6DA01C9010197A1092D
:101AA000B109B695A795979587959A83898389817A
:101AB0009A81292F33278B819C81FC018485958510
:101AC000FC0120838B819C81FC018685978529817F
:101AD000FC0120838B819C81FC01108E8B819C8179
:101AE000FC01848995892985FC0120838B819C8157
:101AF000FC0182899389FC0120818B819C81FC01FE
:101B0000828993892061FC0120838B819C81FC0167
:101B100082899389FC0120818B819C81FC018289CF
:101B200093892860FC0120838B819C81FC01828940
:101B30009389FC0120818B819C81FC01828993899E
:101B40002068FC0120838B819C81FC018289938920
:101B5000FC0120818B819C81FC01828993892F7DEE
:101B6000FC012083000029960FB6F894DEBF0FBE5B
:101B7000CDBFDF91CF910895CF93DF931F921F9236
:101B8000CDB7DEB79A83898389819A81FC01818DE3
:101B9000882F90E09C01205C3F4F89819A81FC0155
:101BA000828D882F90E0A901481B590BCA018F73C1
:101BB00099270F900F90DF91CF910895CF93DF93E6
:101BC0001F921F92CDB7DEB79A83898389819A814C
:101BD000FC01218D89819A81FC01928D81E0291778
:101BE00009F080E0882319F08FEF9FEF0FC0898103
:101BF0009A81FC01828D882F90E029813A81820FA1
:101C0000931F4D96FC018081882F90E00F900F90DC
:101C1000DF91CF910895CF93DF9300D0CDB7DEB79A
:101C20009B838A838A819B81FC01218D8A819B8190
:101C3000FC01928D81E0291709F080E0882319F0DA
:101C40008FEF9FEF1CC08A819B81FC01828D882FC2
:101C500090E02A813B81820F931F4D96FC01808189
:101C600089838A819B81FC01828D8F5F282F2F734E
:101C70008A819B81FC01228F8981882F90E00F90BF
:101C80000F900F90DF91CF910895CF93DF9300D005
:101C90001F92CDB7DEB79C838B838B819C81FC0127
:101CA000838D89838B819C81FC01848D8A839981BA
:101CB0008A81981768F08981882F90E02FE330E0BF
:101CC000281B390B8A81882F90E0820F931F0BC04D
:101CD0008A81282F30E08981882F90E0A901481B54
:101CE000590BCA0101970F900F900F900F90DF9141
:101CF000CF910895CF93DF931F921F92CDB7DEB798
:101D00009A83898389819A81FC01908D81E089275A
:101D1000882309F04DC089819A81FC0182899389C9
:101D2000FC018081882F90E080729927892B69F4CB
:101D300089819A81FC0180899189FC018081882FA9
:101D400090E080749927892B11F481E001C080E034
:101D5000882379F18FE590E0FC01808188237CF075
:101D600089819A81FC0182899389FC018081882F75
:101D700090E080729927892B11F081E001C080E00A
:101D8000882349F289819A81FC0180899189FC012B
:101D90008081882F90E08072992721E0892B09F4B7
:101DA00020E0222309F4B7CF89819A81C2DDB3CF25
:101DB00000000F900F90DF91CF910895CF93DF93A4
:101DC00000D000D01F921F92CDB7DEB79F838E83C5
:101DD00068878E819F8121E0FC01208F8E819F8109
:101DE000FC01238D8E819F81FC01848D281779F45D
:101DF0008E819F81FC0180899189FC018081882FDF
:101E000090E080729927892B11F081E001C080E079
:101E1000882359F18FE590E0FC0180818C836ADD95
:101E2000898389818823D9F08E819F81FC018689ED
:101E300097892885FC0120838E819F81FC01808900
:101E40009189FC0180818370282F20648E819F817D
:101E5000FC0180899189FC0120831982E2CFCE01A7
:101E6000049651DD81E090E06EC08E819F81FC017F
:101E7000838D882F90E001968F739078992324F4B6
:101E80000197806C9F6F01968B838E819F81FC01EF
:101E9000948D81E02B81291709F080E08823F9F0E7
:101EA0008FE590E0FC0180818095881F8827881F3E
:101EB000882359F38E819F81FC0180899189FC01DF
:101EC0008081882F90E08072992721E0892B09F486
:101ED00020E02223D1F28E819F812BDDD6CF8E810F
:101EE0009F81FC01838D882F90E02E813F81820F9E
:101EF000931F835A9F4F2885FC0120838FE590E034
:101F0000FC0180818D83F6DC8A838A818823B1F08D
:101F10008E819F812B81FC01238F8E819F81FC010B
:101F200082899389FC0120818E819F81FC018289B5
:101F300093892062FC0120831A82E7CFCE010596A7
:101F4000E2DC81E090E028960FB6F894DEBF0FBE89
:101F5000CDBFDF91CF910895CF93DF931F921F9252
:101F6000CDB7DEB79A8389832AE933E089819A81E4
:101F7000FC013183208389819A81FC0113821282C2
:101F800000000F900F90DF91CF910895CF93DF93D2
:101F90001F921F92CDB7DEB79A83898380E090E0CD
:101FA0000F900F90DF91CF910895CF93DF931F9201
:101FB0001F92CDB7DEB79A83898300000F900F90F0
:101FC000DF91CF910895CF93DF931F921F92CDB7EA
:101FD000DEB79A83898389819A81BEDF28E833E05E
:101FE00089819A81FC013183208329813A8188EE9D
:101FF00093E0A0E0B0E0F90184839583A683B783E2
:1020000000000F900F90DF91CF910895CF92DF9253
:10201000EF92FF920F931F93CF93DF93CDB7DEB76D
:102020002E970FB6F894DEBF0FBECDBF9A8389837B
:102030007C836B835E834D8338872F831A87098760
:10204000FC86EB86DE86CD8689819A81BCDF26E719
:1020500033E089819A81FC013183208389819A81CF
:102060002B813C81FC013587248789819A812D81D0
:102070003E81FC013787268789819A812F813885A7
:10208000FC01318B208B89819A8129853A85FC015D
:10209000338B228B89819A812B853C85FC01358B82
:1020A000248B89819A812D853E85FC01378B268B77
:1020B00089819A81FC01118E89819A81FC01128E9D
:1020C00089819A81FC01138E89819A81FC01148E89
:1020D00000002E960FB6F894DEBF0FBECDBFDF9185
:1020E000CF911F910F91FF90EF90DF90CF900895C7
:1020F000CF93DF9300D01F92CDB7DEB79C838B8345
:102100008B819C81FC0180899189FC018081882FD1
:1021100090E08470992721E0892B09F020E02223A8
:1021200071F18B819C81FC0186899789FC018081FA
:1021300089838B819C81FC01818D8F5F8F738A8362
:102140008B819C81FC01928D81E02A81291709F401
:1021500080E08823D9F08B819C81FC01818D882FC0
:1021600090E02B813C81820F931F4D962981FC01C9
:1021700020838B819C812A81FC01218F07C08B8168
:102180009C81FC0186899789FC01808100000F9069
:102190000F900F900F90DF91CF9108951F920F92A3
:1021A0000FB60F9211240BB60F922F933F934F93BC
:1021B0005F936F937F938F939F93AF93BF93EF93AF
:1021C000FF93CF93DF93CDB7DEB780E594E090DF48
:1021D0000000DF91CF91FF91EF91BF91AF919F915F
:1021E0008F917F916F915F914F913F912F910F90C0
:1021F0000BBE0F900FBE0F901F9018951F920F925D
:102200000FB60F9211240BB60F922F933F934F935B
:102210005F936F937F938F939F93AF93BF93EF934E
:10222000FF93CF93DF93CDB7DEB780E594E081DBFA
:102230000000DF91CF91FF91EF91BF91AF919F91FE
:102240008F917F916F915F914F913F912F910F905F
:102250000BBE0F900FBE0F901F901895CF92DF927C
:10226000EF92FF920F931F93CF93DF9300D01F92B3
:10227000CDB7DEB79A8389837C836B8389819A810A
:102280000197C9F48B819C810196A9F40F2EF6EC7D
:10229000CF2ED12CF02D0F2EF2ECEF2EF12CF02DB5
:1022A00001EC10E020EC30E044EC50E065EC70E034
:1022B00080E594E0ABDE00000F900F900F900F9040
:1022C000DF91CF911F910F91FF90EF90DF90CF9012
:1022D0000895CF93DF93CDB7DEB76FEF7FEF81E047
:1022E00090E0BCDFDF91CF9108951F920F920FB65F
:1022F0000F9211240BB60F922F933F934F935F933E
:102300006F937F938F939F93AF93BF93EF93FF93BD
:10231000CF93DF93CDB7DEB78DEE94E0E9DE00001A
:10232000DF91CF91FF91EF91BF91AF919F918F91ED
:102330007F916F915F914F913F912F910F900BBEC5
:102340000F900FBE0F901F9018951F920F920FB60F
:102350000F9211240BB60F922F933F934F935F93DD
:102360006F937F938F939F93AF93BF93EF93FF935D
:10237000CF93DF93CDB7DEB78DEE94E0DADA0000CD
:10238000DF91CF91FF91EF91BF91AF919F918F918D
:102390007F916F915F914F913F912F910F900BBE65
:1023A0000F900FBE0F901F901895CF92DF92EF9273
:1023B000FF920F931F93CF93DF9300D01F92CDB75F
:1023C000DEB79A8389837C836B8389819A810197A5
:1023D000C9F48B819C810196A9F40F2EFEECCF2EBF
:1023E000D12CF02D0F2EFAECEF2EF12CF02D09EC64
:1023F00010E028EC30E04CEC50E06DEC70E08DEE3D
:1024000094E004DE00000F900F900F900F90DF918A
:10241000CF911F910F91FF90EF90DF90CF90089593
:10242000CF93DF93CDB7DEB76FEF7FEF81E090E022
:10243000BCDFDF91CF9108951F920F920FB60F92DC
:1024400011240BB60F922F933F934F935F936F938B
:102450007F938F939F93AF93BF93EF93FF93CF930C
:10246000DF93CDB7DEB78AE895E042DE0000DF916A
:10247000CF91FF91EF91BF91AF919F918F917F91FC
:102480006F915F914F913F912F910F900BBE0F90E5
:102490000FBE0F901F9018951F920F920FB60F92BC
:1024A00011240BB60F922F933F934F935F936F932B
:1024B0007F938F939F93AF93BF93EF93FF93CF93AC
:1024C000DF93CDB7DEB78AE895E033DA0000DF911D
:1024D000CF91FF91EF91BF91AF919F918F917F919C
:1024E0006F915F914F913F912F910F900BBE0F9085
:1024F0000FBE0F901F901895CF92DF92EF92FF9230
:102500000F931F93CF93DF9300D01F92CDB7DEB709
:102510009A8389837C836B8389819A810197C9F42B
:102520008B819C810196A9F40F2EF6EDCF2ED12C34
:10253000F02D0F2EF2EDEF2EF12CF02D01ED10E02D
:1025400020ED30E044ED50E065ED70E08AE895E084
:102550005DDD00000F900F900F900F90DF91CF91F5
:102560001F910F91FF90EF90DF90CF900895CF9340
:10257000DF93CDB7DEB76FEF7FEF81E090E0BCDF98
:10258000DF91CF9108951F920F920FB60F921124F1
:102590000BB60F922F933F934F935F936F937F935D
:1025A0008F939F93AF93BF93EF93FF93CF93DF935B
:1025B000CDB7DEB787E296E09BDD0000DF91CF91DB
:1025C000FF91EF91BF91AF919F918F917F916F910B
:1025D0005F914F913F912F910F900BBE0F900FBEC7
:1025E0000F901F9018951F920F920FB60F92112403
:1025F0000BB60F922F933F934F935F936F937F93FD
:102600008F939F93AF93BF93EF93FF93CF93DF93FA
:10261000CDB7DEB787E296E08CD90000DF91CF918D
:10262000FF91EF91BF91AF919F918F917F916F91AA
:102630005F914F913F912F910F900BBE0F900FBE66
:102640000F901F901895CF92DF92EF92FF920F9309
:102650001F93CF93DF9300D01F92CDB7DEB79A833D
:1026600089837C836B8389819A810197D9F48B81DB
:102670009C810196B9F40F2EF6E3CF2EDD24D3947E
:10268000F02D0F2EF2E3EF2EFF24F394F02D01E353
:1026900011E020E331E044E351E065E371E087E2DB
:1026A00096E0B4DC00000F900F900F900F90DF9138
:1026B000CF911F910F91FF90EF90DF90CF900895F1
:1026C000CF93DF93CDB7DEB76FEF7FEF81E090E080
:1026D000BADFDF91CF910895CF93DF9300D000D080
:1026E0001F921F92CDB7DEB79C838B837E836D8351
:1026F00058874F831A8219828F8198859C012150B7
:10270000310938872F8321E0892B09F420E0222327
:1027100019F18B819C81FC0180819181FC012081D8
:1027200031818D819E81AC014F5F5F4F5E834D8310
:10273000FC0140818B819C81642FF901199521E076
:10274000892B09F420E0222331F089819A810196B6
:102750009A838983D1CF000089819A8128960FB608
:10276000F894DEBF0FBECDBFDF91CF910895AF9239
:10277000BF92CF92DF92EF92FF920F931F93CF936E
:10278000DF93CDB7DEB760970FB6F894DEBF0FBE0C
:10279000CDBF69837A838B839C832D833E834F8354
:1027A0005887E986FA860B871C87AD86BE86CF865A
:1027B000D88A29813A814B815C818D819E81AF814C
:1027C000B88579018A01E81AF90A0A0B1B0B2E8DCC
:1027D0003F8D48A159A18D859E85AF85B889590146
:1027E0006A01A81AB90ACA0ADB0AD601C501A801FA
:1027F0009701BC01CD0135D07B018C0129853A853B
:102800004B855C858D819E81AF81B885281B390BF6
:102810004A0B5B0BC801B70155D0DA01C9019C0115
:10282000AD018D859E85AF85B889820F931FA41F4A
:10283000B51FBC01CD0160960FB6F894DEBF0FBE88
:10284000CDBFDF91CF911F910F91FF90EF90DF905F
:10285000CF90BF90AF900895CF93DF93CDB7DEB701
:102860006ED0DB018F939F9351D0BF91AF91A29F08
:10287000800D911DA39F900DB29F900D112408957E
:10288000A1E21A2EAA1BBB1BFD010DC0AA1FBB1F74
:10289000EE1FFF1FA217B307E407F50720F0A21BE6
:1028A000B30BE40BF50B661F771F881F991F1A9453
:1028B00069F760957095809590959B01AC01BD017D
:1028C000CF010895052E97FB16F400940FD057FD05
:1028D00005D0D6DF07FC02D046F408C050954095DD
:1028E000309521953F4F4F4F5F4F089590958095BC
:1028F000709561957F4F8F4F9F4F0895EE0FFF1F8B
:10290000881F8BBF0790F691E02D199409D0A59FE1
:10291000900DB49F900DA49F800D911D11240895DA
:10292000A29FB001B39FC001A39F700D811D112410
:10293000911DB29F700D811D1124911D089581E09C
:0A29400090E0F89400C0F894FFCF77
:10294A006701000102030405060708090A0B0C0DBA
:10295A000E0F101112131415161718191A1B1C1D15
:10296A001E1F202122232425262728292A2B2C2D05
:10297A002E2F303132333435363738393A3B3C3DF5
:10298A003E3F404142434445464748494A4B4C4DE5
:10299A004E4F505152535455565758595A5B5C5DD5
:1029AA005E5F606162636465666768696A6B6C6DC5
:1029BA006E6F707172737475767778797A7B7C7DB5
:1029CA007E7F808182838485868788898A8B8C8DA5
:1029DA008E8F909192939495969798999A9B9C9D95
:1029EA009E9FA0A1A2A3A4A5A6A7A8A9AAABACAD85
:1029FA00AEAFB0B1B2B3B4B3B2B1B0AFAEADACABCF
:102A0A00AAA9A8A7A6A5A4A3A2A1A09F9E9D9C9B94
:102A1A009A999897969594939291908F8E8D8C8B84
:102A2A008A898887868584838281807F7E7D7C7B74
:102A3A007A797877767574737271706F6E6D6C6B64
:102A4A006A696867666564636261605F5E5D5C5B54
:102A5A005A595857565554535251504F4E4D4C4B44
:102A6A004A494847464544434241403F3E3D3C3B34
:102A7A003A393837363534333231302F2E2D2C2B24
:102A8A002A292827262524232221201F1E1D1C1B14
:102A9A001A191817161514131211100F0E0D0C0B04
:102AAA000A090807060504030201000000000100E4
:102ABA00A50300000000DE0E6C13450E7A0EBC0D55
:102ACA000B0EDE0D000000002C146C13C60FD50F80
:102ADA002C142C142C14000000002C146C13C60F98
:022AEA00D50F06
:00000001FF
